{
  "address": "0xB16954d734EF05D9EF5209C117a3A7228A688d27",
  "abi": [
    {
      "inputs": [],
      "stateMutability": "nonpayable",
      "type": "constructor"
    },
    {
      "anonymous": false,
      "inputs": [
        {
          "indexed": true,
          "internalType": "address",
          "name": "authKey",
          "type": "address"
        },
        {
          "indexed": false,
          "internalType": "address",
          "name": "account",
          "type": "address"
        },
        {
          "indexed": false,
          "internalType": "address",
          "name": "deviceKey",
          "type": "address"
        },
        {
          "indexed": false,
          "internalType": "contract RecoveryManager",
          "name": "recoveryManager",
          "type": "address"
        }
      ],
      "name": "AccountCreated",
      "type": "event"
    },
    {
      "anonymous": false,
      "inputs": [
        {
          "indexed": false,
          "internalType": "address",
          "name": "previousAdmin",
          "type": "address"
        },
        {
          "indexed": false,
          "internalType": "address",
          "name": "newAdmin",
          "type": "address"
        }
      ],
      "name": "AdminChanged",
      "type": "event"
    },
    {
      "anonymous": false,
      "inputs": [
        {
          "indexed": true,
          "internalType": "address",
          "name": "beacon",
          "type": "address"
        }
      ],
      "name": "BeaconUpgraded",
      "type": "event"
    },
    {
      "anonymous": false,
      "inputs": [
        {
          "indexed": false,
          "internalType": "uint8",
          "name": "version",
          "type": "uint8"
        }
      ],
      "name": "Initialized",
      "type": "event"
    },
    {
      "anonymous": false,
      "inputs": [
        {
          "indexed": true,
          "internalType": "address",
          "name": "previousOwner",
          "type": "address"
        },
        {
          "indexed": true,
          "internalType": "address",
          "name": "newOwner",
          "type": "address"
        }
      ],
      "name": "OwnershipTransferred",
      "type": "event"
    },
    {
      "anonymous": false,
      "inputs": [
        {
          "indexed": true,
          "internalType": "address",
          "name": "implementation",
          "type": "address"
        }
      ],
      "name": "Upgraded",
      "type": "event"
    },
    {
      "inputs": [
        {
          "internalType": "address",
          "name": "deployer",
          "type": "address"
        }
      ],
      "name": "addDeployer",
      "outputs": [],
      "stateMutability": "nonpayable",
      "type": "function"
    },
    {
      "inputs": [
        {
          "internalType": "address",
          "name": "authKey",
          "type": "address"
        },
        {
          "internalType": "address",
          "name": "deviceKey",
          "type": "address"
        },
        {
          "internalType": "bytes",
          "name": "signature",
          "type": "bytes"
        }
      ],
      "name": "deploy",
      "outputs": [
        {
          "internalType": "contract GnosisSafe",
          "name": "wallet",
          "type": "address"
        }
      ],
      "stateMutability": "nonpayable",
      "type": "function"
    },
    {
      "inputs": [],
      "name": "getInitScript",
      "outputs": [
        {
          "internalType": "contract InitializationScriptInterface",
          "name": "",
          "type": "address"
        }
      ],
      "stateMutability": "view",
      "type": "function"
    },
    {
      "inputs": [],
      "name": "getTwoFactorGuard",
      "outputs": [
        {
          "internalType": "contract TwoFactorGuard",
          "name": "",
          "type": "address"
        }
      ],
      "stateMutability": "view",
      "type": "function"
    },
    {
      "inputs": [
        {
          "internalType": "contract TwoFactorGuard",
          "name": "twoFactorGuard_",
          "type": "address"
        },
        {
          "internalType": "contract GnosisSafe",
          "name": "singleton",
          "type": "address"
        },
        {
          "internalType": "address",
          "name": "trustedForwarder_",
          "type": "address"
        }
      ],
      "name": "initialize",
      "outputs": [],
      "stateMutability": "nonpayable",
      "type": "function"
    },
    {
      "inputs": [
        {
          "internalType": "address",
          "name": "deployer",
          "type": "address"
        }
      ],
      "name": "isDeployer",
      "outputs": [
        {
          "internalType": "bool",
          "name": "",
          "type": "bool"
        }
      ],
      "stateMutability": "view",
      "type": "function"
    },
    {
      "inputs": [],
      "name": "owner",
      "outputs": [
        {
          "internalType": "address",
          "name": "",
          "type": "address"
        }
      ],
      "stateMutability": "view",
      "type": "function"
    },
    {
      "inputs": [],
      "name": "proxiableUUID",
      "outputs": [
        {
          "internalType": "bytes32",
          "name": "",
          "type": "bytes32"
        }
      ],
      "stateMutability": "view",
      "type": "function"
    },
    {
      "inputs": [
        {
          "internalType": "address",
          "name": "deployer",
          "type": "address"
        }
      ],
      "name": "removeDeployer",
      "outputs": [],
      "stateMutability": "nonpayable",
      "type": "function"
    },
    {
      "inputs": [],
      "name": "renounceOwnership",
      "outputs": [],
      "stateMutability": "nonpayable",
      "type": "function"
    },
    {
      "inputs": [
        {
          "internalType": "address",
          "name": "newOwner",
          "type": "address"
        }
      ],
      "name": "transferOwnership",
      "outputs": [],
      "stateMutability": "nonpayable",
      "type": "function"
    },
    {
      "inputs": [
        {
          "internalType": "address",
          "name": "newImplementation",
          "type": "address"
        }
      ],
      "name": "upgradeTo",
      "outputs": [],
      "stateMutability": "nonpayable",
      "type": "function"
    },
    {
      "inputs": [
        {
          "internalType": "address",
          "name": "newImplementation",
          "type": "address"
        },
        {
          "internalType": "bytes",
          "name": "data",
          "type": "bytes"
        }
      ],
      "name": "upgradeToAndCall",
      "outputs": [],
      "stateMutability": "payable",
      "type": "function"
    }
  ],
  "transactionHash": "0xf09de6cb9c05a0dbc1a7a43ed3c181bc96dcea1f0cd3992e003b50dc99544da3",
  "args": [],
  "numDeployments": 3,
  "solcInputHash": "d235bfc69f1685174b9fd0efcdf4d823",
  "bytecode": "0x60a06040523060805234801561001457600080fd5b5061001d610022565b6100e2565b600054610100900460ff161561008e5760405162461bcd60e51b815260206004820152602760248201527f496e697469616c697a61626c653a20636f6e747261637420697320696e697469604482015266616c697a696e6760c81b606482015260840160405180910390fd5b60005460ff90811610156100e0576000805460ff191660ff9081179091556040519081527f7f26b83ff96e1f2b6a682f133852f6798a09c465da95921460cefb38474024989060200160405180910390a15b565b6080516142036200011a6000396000818161084e015281816108e6015281816109f301528181610a8b0152610bca01526142036000f3fe608060405260043610620000e35760003560e01c8063715018a61162000089578063c0c53b8b1162000060578063c0c53b8b1462000254578063c3a4a33e1462000279578063f2fde38b1462000291578063f315df8614620002b657600080fd5b8063715018a614620001ea578063880f403914620002025780638da5cb5b146200022757600080fd5b80634f1ef28611620000be5780634f1ef286146200017657806350c358a4146200018d57806352d1902d14620001c357600080fd5b80630580b4f814620000e85780632db5b86f146200012a5780633659cfe6146200014f575b600080fd5b348015620000f557600080fd5b5062000100620002db565b60405173ffffffffffffffffffffffffffffffffffffffff90911681526020015b60405180910390f35b3480156200013757600080fd5b50620001006200014936600462002018565b62000303565b3480156200015c57600080fd5b50620001746200016e36600462002082565b62000837565b005b6200017462000187366004620020a2565b620009dc565b3480156200019a57600080fd5b50620001b2620001ac36600462002082565b62000b72565b604051901515815260200162000121565b348015620001d057600080fd5b50620001db62000bb0565b60405190815260200162000121565b348015620001f757600080fd5b506200017462000c84565b3480156200020f57600080fd5b50620001746200022136600462002082565b62000c9c565b3480156200023457600080fd5b5060975473ffffffffffffffffffffffffffffffffffffffff1662000100565b3480156200026157600080fd5b506200017462000273366004620020f8565b62000d0c565b3480156200028657600080fd5b50620001006200106a565b3480156200029e57600080fd5b5062000174620002b036600462002082565b62001095565b348015620002c357600080fd5b5062000174620002d536600462002082565b62001135565b6000620002e762001146565b5473ffffffffffffffffffffffffffffffffffffffff16919050565b60006200030f62001146565b336000908152600491909101602052604090205460ff16620003785760405162461bcd60e51b815260206004820152600e60248201527f4e6f742061206465706c6f79657200000000000000000000000000000000000060448201526064015b60405180910390fd5b60006200038462001146565b905060007f7391b7fd7b565b49935bca8d5cdcd2316e6bb1fce12d2ee70ff35f3be49623b68686604051602001620003e59392919092835273ffffffffffffffffffffffffffffffffffffffff918216602084015216604082015260600190565b6040516020818303038152906040528051906020012090508573ffffffffffffffffffffffffffffffffffffffff166200042a6200042383620011aa565b8662001216565b73ffffffffffffffffffffffffffffffffffffffff16146200048f5760405162461bcd60e51b815260206004820152601b60248201527f496e76616c6964207369676e61747572652028617574684b657929000000000060448201526064016200036f565b6040517fffffffffffffffffffffffffffffffffffffffff000000000000000000000000606088901b16602082015262000548906000906034016040516020818303038152906040528051906020012060405180602001620004f19062001f07565b601f1982820381018352601f909101166040819052600287015462000533929173ffffffffffffffffffffffffffffffffffffffff9091169060200162002170565b6040516020818303038152906040526200123e565b6040805160018082528183019092529194506000919060208083019080368337019050509050858160008151811062000585576200058562002194565b73ffffffffffffffffffffffffffffffffffffffff928316602091820292909201810191909152845460408051606089811b7fffffffffffffffffffffffffffffffffffffffff000000000000000000000000908116838701528d821b8116603484015293901b90921660488301528051603c818403018152605c9092019052805191012060038501549091600091620006219116836200135c565b85546040517fc0c53b8b00000000000000000000000000000000000000000000000000000000815273ffffffffffffffffffffffffffffffffffffffff89811660048301528c81166024830152918216604482015291925082169063c0c53b8b90606401600060405180830381600087803b158015620006a057600080fd5b505af1158015620006b5573d6000803e3d6000fd5b50506040805173ffffffffffffffffffffffffffffffffffffffff8a811682528c81166020830152858116828401529151918d1693507ff910bcf6ef45198082a2e9755330a11e60bde93603dd71de5eb22ecab5416768925081900360600190a2600185810154865460405173ffffffffffffffffffffffffffffffffffffffff858116602483015291821660448201528982169363b63e800d938893919291169060640160408051601f198184030181529181526020820180517bffffffffffffffffffffffffffffffffffffffffffffffffffffffff167f63bd54e300000000000000000000000000000000000000000000000000000000179052517fffffffff0000000000000000000000000000000000000000000000000000000060e087901b168152620007f79493929190600090819081908190600401620021f1565b600060405180830381600087803b1580156200081257600080fd5b505af115801562000827573d6000803e3d6000fd5b5050505050505050509392505050565b73ffffffffffffffffffffffffffffffffffffffff7f0000000000000000000000000000000000000000000000000000000000000000163003620008e45760405162461bcd60e51b815260206004820152602c60248201527f46756e6374696f6e206d7573742062652063616c6c6564207468726f7567682060448201527f64656c656761746563616c6c000000000000000000000000000000000000000060648201526084016200036f565b7f000000000000000000000000000000000000000000000000000000000000000073ffffffffffffffffffffffffffffffffffffffff166200092562001408565b73ffffffffffffffffffffffffffffffffffffffff1614620009b05760405162461bcd60e51b815260206004820152602c60248201527f46756e6374696f6e206d7573742062652063616c6c6564207468726f7567682060448201527f6163746976652070726f7879000000000000000000000000000000000000000060648201526084016200036f565b620009bb8162001431565b60408051600080825260208201909252620009d9918391906200143b565b50565b73ffffffffffffffffffffffffffffffffffffffff7f000000000000000000000000000000000000000000000000000000000000000016300362000a895760405162461bcd60e51b815260206004820152602c60248201527f46756e6374696f6e206d7573742062652063616c6c6564207468726f7567682060448201527f64656c656761746563616c6c000000000000000000000000000000000000000060648201526084016200036f565b7f000000000000000000000000000000000000000000000000000000000000000073ffffffffffffffffffffffffffffffffffffffff1662000aca62001408565b73ffffffffffffffffffffffffffffffffffffffff161462000b555760405162461bcd60e51b815260206004820152602c60248201527f46756e6374696f6e206d7573742062652063616c6c6564207468726f7567682060448201527f6163746976652070726f7879000000000000000000000000000000000000000060648201526084016200036f565b62000b608262001431565b62000b6e828260016200143b565b5050565b600062000b7e62001146565b73ffffffffffffffffffffffffffffffffffffffff909216600090815260049290920160205250604090205460ff1690565b60003073ffffffffffffffffffffffffffffffffffffffff7f0000000000000000000000000000000000000000000000000000000000000000161462000c5f5760405162461bcd60e51b815260206004820152603860248201527f555550535570677261646561626c653a206d757374206e6f742062652063616c60448201527f6c6564207468726f7567682064656c656761746563616c6c000000000000000060648201526084016200036f565b507f360894a13ba1a3210667c828492db98dca3e2076cc3735a920a3ca505d382bbc90565b62000c8e620015f9565b62000c9a600062001662565b565b62000ca6620015f9565b600162000cb262001146565b73ffffffffffffffffffffffffffffffffffffffff9290921660009081526004909201602052604090912080547fffffffffffffffffffffffffffffffffffffffffffffffffffffffffffffff0016911515919091179055565b600054610100900460ff161580801562000d2d5750600054600160ff909116105b8062000d495750303b15801562000d49575060005460ff166001145b62000dbd5760405162461bcd60e51b815260206004820152602e60248201527f496e697469616c697a61626c653a20636f6e747261637420697320616c72656160448201527f647920696e697469616c697a656400000000000000000000000000000000000060648201526084016200036f565b600080547fffffffffffffffffffffffffffffffffffffffffffffffffffffffffffffff00166001179055801562000e1c57600080547fffffffffffffffffffffffffffffffffffffffffffffffffffffffffffff00ff166101001790555b62000e26620016d9565b62000e9c6040518060400160405280600d81526020017f506c75736572466163746f7279000000000000000000000000000000000000008152506040518060400160405280600181526020017f310000000000000000000000000000000000000000000000000000000000000081525062001762565b600062000ea862001146565b80547fffffffffffffffffffffffff00000000000000000000000000000000000000001673ffffffffffffffffffffffffffffffffffffffff871617815560405190915062000ef79062001f15565b604051809103906000f08015801562000f14573d6000803e3d6000fd5b506001820180547fffffffffffffffffffffffff000000000000000000000000000000000000000090811673ffffffffffffffffffffffffffffffffffffffff93841617909155600283018054909116918616919091179055604051839062000f7d9062001f23565b73ffffffffffffffffffffffffffffffffffffffff9091168152602001604051809103906000f08015801562000fb7573d6000803e3d6000fd5b5060039190910180547fffffffffffffffffffffffff00000000000000000000000000000000000000001673ffffffffffffffffffffffffffffffffffffffff90921691909117905580156200106457600080547fffffffffffffffffffffffffffffffffffffffffffffffffffffffffffff00ff169055604051600181527f7f26b83ff96e1f2b6a682f133852f6798a09c465da95921460cefb38474024989060200160405180910390a15b50505050565b60006200107662001146565b6001015473ffffffffffffffffffffffffffffffffffffffff16919050565b6200109f620015f9565b73ffffffffffffffffffffffffffffffffffffffff81166200112a5760405162461bcd60e51b815260206004820152602660248201527f4f776e61626c653a206e6577206f776e657220697320746865207a65726f206160448201527f646472657373000000000000000000000000000000000000000000000000000060648201526084016200036f565b620009d98162001662565b6200113f620015f9565b600062000cb25b60008060016040516020016200117f907f706c757365722e666163746f72792e73746f726167652e763100000000000000815260190190565b6040516020818303038152906040528051906020012060001c620011a49190620022f4565b92915050565b6000620011a4620011ba620017ed565b836040517f19010000000000000000000000000000000000000000000000000000000000006020820152602281018390526042810182905260009060620160405160208183030381529060405280519060200120905092915050565b60008060006200122785856200186f565b915091506200123681620018b8565b509392505050565b600083471015620012925760405162461bcd60e51b815260206004820152601d60248201527f437265617465323a20696e73756666696369656e742062616c616e636500000060448201526064016200036f565b8151600003620012e55760405162461bcd60e51b815260206004820181905260248201527f437265617465323a2062797465636f6465206c656e677468206973207a65726f60448201526064016200036f565b8282516020840186f5905073ffffffffffffffffffffffffffffffffffffffff8116620013555760405162461bcd60e51b815260206004820152601960248201527f437265617465323a204661696c6564206f6e206465706c6f790000000000000060448201526064016200036f565b9392505050565b6000763d602d80600a3d3981f3363d3d373d3d3d363d730000008360601b60e81c176000526e5af43d82803e903d91602b57fd5bf38360781b1760205281603760096000f5905073ffffffffffffffffffffffffffffffffffffffff8116620011a45760405162461bcd60e51b815260206004820152601760248201527f455243313136373a2063726561746532206661696c656400000000000000000060448201526064016200036f565b60007f360894a13ba1a3210667c828492db98dca3e2076cc3735a920a3ca505d382bbc620002e7565b620009d9620015f9565b7f4910fdfa16fed3260ed0e7147f7cc6da11a60208b5b9406d12a635614ffd91435460ff16156200147657620014718362001a30565b505050565b8273ffffffffffffffffffffffffffffffffffffffff166352d1902d6040518163ffffffff1660e01b8152600401602060405180830381865afa925050508015620014e0575060408051601f3d908101601f19168201909252620014dd918101906200232f565b60015b620015545760405162461bcd60e51b815260206004820152602e60248201527f45524331393637557067726164653a206e657720696d706c656d656e7461746960448201527f6f6e206973206e6f74205555505300000000000000000000000000000000000060648201526084016200036f565b7f360894a13ba1a3210667c828492db98dca3e2076cc3735a920a3ca505d382bbc8114620015eb5760405162461bcd60e51b815260206004820152602960248201527f45524331393637557067726164653a20756e737570706f727465642070726f7860448201527f6961626c6555554944000000000000000000000000000000000000000000000060648201526084016200036f565b506200147183838362001b22565b60975473ffffffffffffffffffffffffffffffffffffffff16331462000c9a5760405162461bcd60e51b815260206004820181905260248201527f4f776e61626c653a2063616c6c6572206973206e6f7420746865206f776e657260448201526064016200036f565b6097805473ffffffffffffffffffffffffffffffffffffffff8381167fffffffffffffffffffffffff0000000000000000000000000000000000000000831681179093556040519116919082907f8be0079c531659141344cd1fd0a4f28419497f9722a3daafe3b4186f6b6457e090600090a35050565b600054610100900460ff16620017585760405162461bcd60e51b815260206004820152602b60248201527f496e697469616c697a61626c653a20636f6e7472616374206973206e6f74206960448201527f6e697469616c697a696e6700000000000000000000000000000000000000000060648201526084016200036f565b62000c9a62001b4d565b600054610100900460ff16620017e15760405162461bcd60e51b815260206004820152602b60248201527f496e697469616c697a61626c653a20636f6e7472616374206973206e6f74206960448201527f6e697469616c697a696e6700000000000000000000000000000000000000000060648201526084016200036f565b62000b6e828262001bd7565b60006200186a7f8b73c3c69bb8fe3d512ecc4cf759cc79239f7b179b0ffacaa9a75d522b39400f6200181e60c95490565b60ca546040805160208101859052908101839052606081018290524660808201523060a082015260009060c0016040516020818303038152906040528051906020012090509392505050565b905090565b6000808251604103620018a95760208301516040840151606085015160001a6200189c8782858562001c70565b94509450505050620018b1565b506000905060025b9250929050565b6000816004811115620018cf57620018cf62002349565b03620018d85750565b6001816004811115620018ef57620018ef62002349565b036200193e5760405162461bcd60e51b815260206004820152601860248201527f45434453413a20696e76616c6964207369676e6174757265000000000000000060448201526064016200036f565b600281600481111562001955576200195562002349565b03620019a45760405162461bcd60e51b815260206004820152601f60248201527f45434453413a20696e76616c6964207369676e6174757265206c656e6774680060448201526064016200036f565b6003816004811115620019bb57620019bb62002349565b03620009d95760405162461bcd60e51b815260206004820152602260248201527f45434453413a20696e76616c6964207369676e6174757265202773272076616c60448201527f756500000000000000000000000000000000000000000000000000000000000060648201526084016200036f565b73ffffffffffffffffffffffffffffffffffffffff81163b62001abc5760405162461bcd60e51b815260206004820152602d60248201527f455243313936373a206e657720696d706c656d656e746174696f6e206973206e60448201527f6f74206120636f6e74726163740000000000000000000000000000000000000060648201526084016200036f565b7f360894a13ba1a3210667c828492db98dca3e2076cc3735a920a3ca505d382bbc80547fffffffffffffffffffffffff00000000000000000000000000000000000000001673ffffffffffffffffffffffffffffffffffffffff92909216919091179055565b62001b2d8362001d46565b60008251118062001b3b5750805b15620014715762001064838362001d95565b600054610100900460ff1662001bcc5760405162461bcd60e51b815260206004820152602b60248201527f496e697469616c697a61626c653a20636f6e7472616374206973206e6f74206960448201527f6e697469616c697a696e6700000000000000000000000000000000000000000060648201526084016200036f565b62000c9a3362001662565b600054610100900460ff1662001c565760405162461bcd60e51b815260206004820152602b60248201527f496e697469616c697a61626c653a20636f6e7472616374206973206e6f74206960448201527f6e697469616c697a696e6700000000000000000000000000000000000000000060648201526084016200036f565b81516020928301208151919092012060c99190915560ca55565b6000807f7fffffffffffffffffffffffffffffff5d576e7357a4501ddfe92f46681b20a083111562001ca9575060009050600362001d3d565b6040805160008082526020820180845289905260ff881692820192909252606081018690526080810185905260019060a0016020604051602081039080840390855afa15801562001cfe573d6000803e3d6000fd5b5050604051601f19015191505073ffffffffffffffffffffffffffffffffffffffff811662001d365760006001925092505062001d3d565b9150600090505b94509492505050565b62001d518162001a30565b60405173ffffffffffffffffffffffffffffffffffffffff8216907fbc7cd75a20ee27fd9adebab32041f755214dbc6bffa90cc0225b39da2e5c2d3b90600090a250565b606073ffffffffffffffffffffffffffffffffffffffff83163b62001e235760405162461bcd60e51b815260206004820152602660248201527f416464726573733a2064656c65676174652063616c6c20746f206e6f6e2d636f60448201527f6e7472616374000000000000000000000000000000000000000000000000000060648201526084016200036f565b6000808473ffffffffffffffffffffffffffffffffffffffff168460405162001e4d919062002378565b600060405180830381855af49150503d806000811462001e8a576040519150601f19603f3d011682016040523d82523d6000602084013e62001e8f565b606091505b509150915062001eba8282604051806060016040528060278152602001620041a76027913962001ec3565b95945050505050565b6060831562001ed457508162001355565b62001355838381511562001eeb5781518083602001fd5b8060405162461bcd60e51b81526004016200036f919062002396565b61019880620023ac83390190565b610200806200254483390190565b611a63806200274483390190565b73ffffffffffffffffffffffffffffffffffffffff81168114620009d957600080fd5b7f4e487b7100000000000000000000000000000000000000000000000000000000600052604160045260246000fd5b600082601f83011262001f9557600080fd5b813567ffffffffffffffff8082111562001fb35762001fb362001f54565b604051601f8301601f19908116603f0116810190828211818310171562001fde5762001fde62001f54565b8160405283815286602085880101111562001ff857600080fd5b836020870160208301376000602085830101528094505050505092915050565b6000806000606084860312156200202e57600080fd5b83356200203b8162001f31565b925060208401356200204d8162001f31565b9150604084013567ffffffffffffffff8111156200206a57600080fd5b620020788682870162001f83565b9150509250925092565b6000602082840312156200209557600080fd5b8135620013558162001f31565b60008060408385031215620020b657600080fd5b8235620020c38162001f31565b9150602083013567ffffffffffffffff811115620020e057600080fd5b620020ee8582860162001f83565b9150509250929050565b6000806000606084860312156200210e57600080fd5b83356200211b8162001f31565b925060208401356200212d8162001f31565b915060408401356200213f8162001f31565b809150509250925092565b60005b83811015620021675781810151838201526020016200214d565b50506000910152565b60008351620021848184602088016200214a565b9190910191825250602001919050565b7f4e487b7100000000000000000000000000000000000000000000000000000000600052603260045260246000fd5b60008151808452620021dd8160208601602086016200214a565b601f01601f19169290920160200192915050565b6101008082528951908201819052600090610120830190602090818d01845b828110156200224457815173ffffffffffffffffffffffffffffffffffffffff168552938301939083019060010162002210565b50505083018a905273ffffffffffffffffffffffffffffffffffffffff8916604084015282810360608401526200227c8189620021c3565b915050620022a2608083018773ffffffffffffffffffffffffffffffffffffffff169052565b73ffffffffffffffffffffffffffffffffffffffff851660a08301528360c0830152620022e760e083018473ffffffffffffffffffffffffffffffffffffffff169052565b9998505050505050505050565b81810381811115620011a4577f4e487b7100000000000000000000000000000000000000000000000000000000600052601160045260246000fd5b6000602082840312156200234257600080fd5b5051919050565b7f4e487b7100000000000000000000000000000000000000000000000000000000600052602160045260246000fd5b600082516200238c8184602087016200214a565b9190910192915050565b602081526000620013556020830184620021c356fe608060405234801561001057600080fd5b5060405161019838038061019883398101604081905261002f916100b9565b6001600160a01b0381166100945760405162461bcd60e51b815260206004820152602260248201527f496e76616c69642073696e676c65746f6e20616464726573732070726f766964604482015261195960f21b606482015260840160405180910390fd5b600080546001600160a01b0319166001600160a01b03929092169190911790556100e9565b6000602082840312156100cb57600080fd5b81516001600160a01b03811681146100e257600080fd5b9392505050565b60a1806100f76000396000f3fe6080604052600073ffffffffffffffffffffffffffffffffffffffff8154167fa619486e00000000000000000000000000000000000000000000000000000000823503604d57808252602082f35b3682833781823684845af490503d82833e806066573d82fd5b503d81f3fea26469706673582212202ee72963c47e51f972c5294b98c1505a796f511631dde635e11c3e1801b9a9e164736f6c63430008130033608060405234801561001057600080fd5b506101e0806100206000396000f3fe608060405234801561001057600080fd5b506004361061002b5760003560e01c806363bd54e314610030575b600080fd5b61004361003e366004610171565b610045565b005b6040517f610b592500000000000000000000000000000000000000000000000000000000815273ffffffffffffffffffffffffffffffffffffffff831660048201523090819063610b592590602401600060405180830381600087803b1580156100ae57600080fd5b505af11580156100c2573d6000803e3d6000fd5b50506040517fe19a9dd900000000000000000000000000000000000000000000000000000000815273ffffffffffffffffffffffffffffffffffffffff85811660048301528416925063e19a9dd99150602401600060405180830381600087803b15801561012f57600080fd5b505af1158015610143573d6000803e3d6000fd5b50505050505050565b73ffffffffffffffffffffffffffffffffffffffff8116811461016e57600080fd5b50565b6000806040838503121561018457600080fd5b823561018f8161014c565b9150602083013561019f8161014c565b80915050925092905056fea2646970667358221220058741f015fe7e8d63469a959dc5231b8753aca0b183a8dcf934f4f4aef132a764736f6c6343000813003360a06040523480156200001157600080fd5b5060405162001a6338038062001a63833981016040819052620000349162000114565b6001600160a01b0381166080526200004b62000052565b5062000146565b600054610100900460ff1615620000bf5760405162461bcd60e51b815260206004820152602760248201527f496e697469616c697a61626c653a20636f6e747261637420697320696e697469604482015266616c697a696e6760c81b606482015260840160405180910390fd5b60005460ff908116101562000112576000805460ff191660ff9081179091556040519081527f7f26b83ff96e1f2b6a682f133852f6798a09c465da95921460cefb38474024989060200160405180910390a15b565b6000602082840312156200012757600080fd5b81516001600160a01b03811681146200013f57600080fd5b9392505050565b6080516118fa62000169600039600081816101a0015261116b01526118fa6000f3fe608060405234801561001057600080fd5b50600436106100c95760003560e01c80636bb4855411610081578063bc2c81e91161005b578063bc2c81e914610244578063c0c53b8b1461024e578063ddceafa91461026157600080fd5b80636bb48554146101ed5780637c1a03021461020d5780637ceab3b11461022457600080fd5b8063521eb273116100b2578063521eb2731461013857806356ef72c11461017d578063572b6c051461019057600080fd5b8063338cdca1146100ce578063442820a214610123575b600080fd5b609d54609e546100f29173ffffffffffffffffffffffffffffffffffffffff169082565b6040805173ffffffffffffffffffffffffffffffffffffffff90931683526020830191909152015b60405180910390f35b61013661013136600461147e565b610269565b005b6099546101589073ffffffffffffffffffffffffffffffffffffffff1681565b60405173ffffffffffffffffffffffffffffffffffffffff909116815260200161011a565b61013661018b3660046114d3565b610628565b6101dd61019e366004611515565b7f000000000000000000000000000000000000000000000000000000000000000073ffffffffffffffffffffffffffffffffffffffff90811691161490565b604051901515815260200161011a565b609b546101589073ffffffffffffffffffffffffffffffffffffffff1681565b610216609c5481565b60405190815260200161011a565b609a546101589073ffffffffffffffffffffffffffffffffffffffff1681565b6102166203f48081565b61013661025c366004611539565b610878565b610136610ac1565b609b5473ffffffffffffffffffffffffffffffffffffffff1661028a611167565b73ffffffffffffffffffffffffffffffffffffffff16146103185760405162461bcd60e51b815260206004820152602160248201527f526571756573744d616e616765723a205065726d697373696f6e2064656e696560448201527f640000000000000000000000000000000000000000000000000000000000000060648201526084015b60405180910390fd5b6099546040517f2f54bf6e00000000000000000000000000000000000000000000000000000000815273ffffffffffffffffffffffffffffffffffffffff858116600483015290911690632f54bf6e90602401602060405180830381865afa158015610388573d6000803e3d6000fd5b505050506040513d601f19601f820116820180604052508101906103ac9190611584565b1561041e5760405162461bcd60e51b8152602060048201526024808201527f526571756573744d616e616765723a204f776e657220616c726561647920657860448201527f6973747300000000000000000000000000000000000000000000000000000000606482015260840161030f565b610428609d6111db565b1561049b5760405162461bcd60e51b815260206004820152602660248201527f526571756573744d616e616765723a205265717565737420616c72656164792060448201527f6578697374730000000000000000000000000000000000000000000000000000606482015260840161030f565b609a54609c805473ffffffffffffffffffffffffffffffffffffffff909216916398bcab239161054e917f79eb4ea9d1c9efeabbb31f44d344b0196e0ae5c202923a51cbd926b2407734879188916000906104f5906115d5565b91829055506040516105339392919060200192835273ffffffffffffffffffffffffffffffffffffffff919091166020830152604082015260600190565b6040516020818303038152906040528051906020012061120e565b84846040518463ffffffff1660e01b815260040161056e9392919061160d565b60006040518083038186803b15801561058657600080fd5b505afa15801561059a573d6000803e3d6000fd5b5050505060405180604001604052808473ffffffffffffffffffffffffffffffffffffffff1681526020016203f480426105d49190611661565b90528051609d80547fffffffffffffffffffffffff00000000000000000000000000000000000000001673ffffffffffffffffffffffffffffffffffffffff90921691909117905560200151609e55505050565b609b5473ffffffffffffffffffffffffffffffffffffffff16610649611167565b73ffffffffffffffffffffffffffffffffffffffff16146106d25760405162461bcd60e51b815260206004820152602160248201527f526571756573744d616e616765723a205065726d697373696f6e2064656e696560448201527f6400000000000000000000000000000000000000000000000000000000000000606482015260840161030f565b6106dc609d6111db565b61074e5760405162461bcd60e51b815260206004820152602260248201527f526571756573744d616e616765723a2052657175657374206e6f74206578697360448201527f7473000000000000000000000000000000000000000000000000000000000000606482015260840161030f565b609a54609d54609e54609c805473ffffffffffffffffffffffffffffffffffffffff948516946398bcab23946107f3947ff6b6854e134de50573da5f0061f3e66b59dff3adb404999ee09bb1e1809247999491909216926000906107b1906115d5565b918290555060408051602081019590955273ffffffffffffffffffffffffffffffffffffffff909316928401929092526060830152608082015260a001610533565b84846040518463ffffffff1660e01b81526004016108139392919061160d565b60006040518083038186803b15801561082b57600080fd5b505afa15801561083f573d6000803e3d6000fd5b50506000609e555050609d80547fffffffffffffffffffffffff00000000000000000000000000000000000000001690555050565b5050565b600054610100900460ff16158080156108985750600054600160ff909116105b806108b25750303b1580156108b2575060005460ff166001145b6109245760405162461bcd60e51b815260206004820152602e60248201527f496e697469616c697a61626c653a20636f6e747261637420697320616c72656160448201527f647920696e697469616c697a6564000000000000000000000000000000000000606482015260840161030f565b600080547fffffffffffffffffffffffffffffffffffffffffffffffffffffffffffffff00166001179055801561098257600080547fffffffffffffffffffffffffffffffffffffffffffffffffffffffffffff00ff166101001790555b6109f66040518060400160405280600d81526020017f506c75736572466163746f7279000000000000000000000000000000000000008152506040518060400160405280600181526020017f3100000000000000000000000000000000000000000000000000000000000000815250611277565b6099805473ffffffffffffffffffffffffffffffffffffffff8087167fffffffffffffffffffffffff000000000000000000000000000000000000000092831617909255609b8054868416908316179055609a8054928516929091169190911790558015610abb57600080547fffffffffffffffffffffffffffffffffffffffffffffffffffffffffffff00ff169055604051600181527f7f26b83ff96e1f2b6a682f133852f6798a09c465da95921460cefb38474024989060200160405180910390a15b50505050565b6000610acb611167565b90506000609a60009054906101000a900473ffffffffffffffffffffffffffffffffffffffff1673ffffffffffffffffffffffffffffffffffffffff1663bfb8db986040518163ffffffff1660e01b8152600401602060405180830381865afa158015610b3c573d6000803e3d6000fd5b505050506040513d601f19601f82011682018060405250810190610b609190611674565b609b5490915073ffffffffffffffffffffffffffffffffffffffff83811691161480610bb757508073ffffffffffffffffffffffffffffffffffffffff168273ffffffffffffffffffffffffffffffffffffffff16145b610c295760405162461bcd60e51b815260206004820152602160248201527f526571756573744d616e616765723a205065726d697373696f6e2064656e696560448201527f6400000000000000000000000000000000000000000000000000000000000000606482015260840161030f565b610c33609d6111db565b610ca55760405162461bcd60e51b815260206004820152602260248201527f526571756573744d616e616765723a2052657175657374206e6f74206578697360448201527f7473000000000000000000000000000000000000000000000000000000000000606482015260840161030f565b609e544211610d1b5760405162461bcd60e51b8152602060048201526024808201527f526571756573744d616e616765723a2052657175657374206e6f7420756e6c6f60448201527f636b656400000000000000000000000000000000000000000000000000000000606482015260840161030f565b609954609d546040805173ffffffffffffffffffffffffffffffffffffffff9283166024820152600160448083019190915282518083039091018152606490910182526020810180517bffffffffffffffffffffffffffffffffffffffffffffffffffffffff167f0d582f130000000000000000000000000000000000000000000000000000000017905290517f468721a7000000000000000000000000000000000000000000000000000000008152919092169163468721a791610dea918491600091908290600401611691565b6020604051808303816000875af1158015610e09573d6000803e3d6000fd5b505050506040513d601f19601f82011682018060405250810190610e2d9190611584565b610e795760405162461bcd60e51b815260206004820181905260248201527f526571756573744d616e616765723a20416464206f776e6572206661696c6564604482015260640161030f565b609954604080517fa0e67e2b000000000000000000000000000000000000000000000000000000008152905160009273ffffffffffffffffffffffffffffffffffffffff169163a0e67e2b91600480830192869291908290030181865afa158015610ee8573d6000803e3d6000fd5b505050506040513d6000823e601f3d9081017fffffffffffffffffffffffffffffffffffffffffffffffffffffffffffffffe0168201604052610f2e919081019061179f565b905060015b81518110156111345760995473ffffffffffffffffffffffffffffffffffffffff1663468721a78160008163f8dc5dd987610f6f600189611882565b81518110610f7f57610f7f611895565b6020026020010151888881518110610f9957610f99611895565b602090810291909101015160405173ffffffffffffffffffffffffffffffffffffffff92831660248201529116604482015260016064820152608401604080518083037fffffffffffffffffffffffffffffffffffffffffffffffffffffffffffffffe001815291815260208201805160e094851b7bffffffffffffffffffffffffffffffffffffffffffffffffffffffff909116179052519186901b7fffffffff0000000000000000000000000000000000000000000000000000000016825261106d9493925090600090600401611691565b6020604051808303816000875af115801561108c573d6000803e3d6000fd5b505050506040513d601f19601f820116820180604052508101906110b09190611584565b6111225760405162461bcd60e51b815260206004820152602360248201527f526571756573744d616e616765723a2052656d6f7665206f776e65722066616960448201527f6c65640000000000000000000000000000000000000000000000000000000000606482015260840161030f565b8061112c816115d5565b915050610f33565b506000609e55609d80547fffffffffffffffffffffffff0000000000000000000000000000000000000000169055505050565b60007f000000000000000000000000000000000000000000000000000000000000000073ffffffffffffffffffffffffffffffffffffffff1633036111d157507fffffffffffffffffffffffffffffffffffffffffffffffffffffffffffffffec36013560601c90565b503390565b905090565b600081600101546000141580156112085750815473ffffffffffffffffffffffffffffffffffffffff1615155b92915050565b600061120861121b6112fe565b836040517f19010000000000000000000000000000000000000000000000000000000000006020820152602281018390526042810182905260009060620160405160208183030381529060405280519060200120905092915050565b600054610100900460ff166112f45760405162461bcd60e51b815260206004820152602b60248201527f496e697469616c697a61626c653a20636f6e7472616374206973206e6f74206960448201527f6e697469616c697a696e67000000000000000000000000000000000000000000606482015260840161030f565b6108748282611379565b60006111d67f8b73c3c69bb8fe3d512ecc4cf759cc79239f7b179b0ffacaa9a75d522b39400f61132d60655490565b6066546040805160208101859052908101839052606081018290524660808201523060a082015260009060c0016040516020818303038152906040528051906020012090509392505050565b600054610100900460ff166113f65760405162461bcd60e51b815260206004820152602b60248201527f496e697469616c697a61626c653a20636f6e7472616374206973206e6f74206960448201527f6e697469616c697a696e67000000000000000000000000000000000000000000606482015260840161030f565b815160209283012081519190920120606591909155606655565b73ffffffffffffffffffffffffffffffffffffffff8116811461143257600080fd5b50565b60008083601f84011261144757600080fd5b50813567ffffffffffffffff81111561145f57600080fd5b60208301915083602082850101111561147757600080fd5b9250929050565b60008060006040848603121561149357600080fd5b833561149e81611410565b9250602084013567ffffffffffffffff8111156114ba57600080fd5b6114c686828701611435565b9497909650939450505050565b600080602083850312156114e657600080fd5b823567ffffffffffffffff8111156114fd57600080fd5b61150985828601611435565b90969095509350505050565b60006020828403121561152757600080fd5b813561153281611410565b9392505050565b60008060006060848603121561154e57600080fd5b833561155981611410565b9250602084013561156981611410565b9150604084013561157981611410565b809150509250925092565b60006020828403121561159657600080fd5b8151801515811461153257600080fd5b7f4e487b7100000000000000000000000000000000000000000000000000000000600052601160045260246000fd5b60007fffffffffffffffffffffffffffffffffffffffffffffffffffffffffffffffff8203611606576116066115a6565b5060010190565b83815260406020820152816040820152818360608301376000818301606090810191909152601f9092017fffffffffffffffffffffffffffffffffffffffffffffffffffffffffffffffe016010192915050565b80820180821115611208576112086115a6565b60006020828403121561168657600080fd5b815161153281611410565b73ffffffffffffffffffffffffffffffffffffffff8516815260006020858184015260806040840152845180608085015260005b818110156116e15786810183015185820160a0015282016116c5565b50600060a0828601015260a07fffffffffffffffffffffffffffffffffffffffffffffffffffffffffffffffe0601f8301168501019250505060028310611751577f4e487b7100000000000000000000000000000000000000000000000000000000600052602160045260246000fd5b82606083015295945050505050565b7f4e487b7100000000000000000000000000000000000000000000000000000000600052604160045260246000fd5b805161179a81611410565b919050565b600060208083850312156117b257600080fd5b825167ffffffffffffffff808211156117ca57600080fd5b818501915085601f8301126117de57600080fd5b8151818111156117f0576117f0611760565b8060051b6040517fffffffffffffffffffffffffffffffffffffffffffffffffffffffffffffffe0603f8301168101818110858211171561183357611833611760565b60405291825284820192508381018501918883111561185157600080fd5b938501935b82851015611876576118678561178f565b84529385019392850192611856565b98975050505050505050565b81810381811115611208576112086115a6565b7f4e487b7100000000000000000000000000000000000000000000000000000000600052603260045260246000fdfea2646970667358221220d84e5a3f44ed7ec4ee2de663030bab0c23e99bbaae87b3c932a9832e48054fe764736f6c63430008130033416464726573733a206c6f772d6c6576656c2064656c65676174652063616c6c206661696c6564a2646970667358221220fed6357216cbdfd865c1d6e42cdcbb41c3820ee54dffbeb0c5031cba7e25f16264736f6c63430008130033",
  "devdoc": {
    "events": {
      "AdminChanged(address,address)": {
        "details": "Emitted when the admin account has changed."
      },
      "BeaconUpgraded(address)": {
        "details": "Emitted when the beacon is upgraded."
      },
      "Initialized(uint8)": {
        "details": "Triggered when the contract has been initialized or reinitialized."
      },
      "Upgraded(address)": {
        "details": "Emitted when the implementation is upgraded."
      }
    },
    "kind": "dev",
    "methods": {
      "constructor": {
        "custom:oz-upgrades-unsafe-allow": "constructor"
      },
      "owner()": {
        "details": "Returns the address of the current owner."
      },
      "proxiableUUID()": {
        "details": "Implementation of the ERC1822 {proxiableUUID} function. This returns the storage slot used by the implementation. It is used to validate the implementation's compatibility when performing an upgrade. IMPORTANT: A proxy pointing at a proxiable contract should not be considered proxiable itself, because this risks bricking a proxy that upgrades to it, by delegating to itself until out of gas. Thus it is critical that this function revert if invoked through a proxy. This is guaranteed by the `notDelegated` modifier."
      },
      "renounceOwnership()": {
        "details": "Leaves the contract without owner. It will not be possible to call `onlyOwner` functions anymore. Can only be called by the current owner. NOTE: Renouncing ownership will leave the contract without an owner, thereby removing any functionality that is only available to the owner."
      },
      "transferOwnership(address)": {
        "details": "Transfers ownership of the contract to a new account (`newOwner`). Can only be called by the current owner."
      },
      "upgradeTo(address)": {
        "details": "Upgrade the implementation of the proxy to `newImplementation`. Calls {_authorizeUpgrade}. Emits an {Upgraded} event."
      },
      "upgradeToAndCall(address,bytes)": {
        "details": "Upgrade the implementation of the proxy to `newImplementation`, and subsequently execute the function call encoded in `data`. Calls {_authorizeUpgrade}. Emits an {Upgraded} event."
      }
    },
    "version": 1
  },
  "userdoc": {
    "kind": "user",
    "methods": {},
    "version": 1
  },
  "storageLayout": {
    "storage": [
      {
        "astId": 2928,
        "contract": "contracts/Factory.sol:Factory",
        "label": "_initialized",
        "offset": 0,
        "slot": "0",
        "type": "t_uint8"
      },
      {
        "astId": 2931,
        "contract": "contracts/Factory.sol:Factory",
        "label": "_initializing",
        "offset": 1,
        "slot": "0",
        "type": "t_bool"
      },
      {
        "astId": 2910,
        "contract": "contracts/Factory.sol:Factory",
        "label": "__gap",
        "offset": 0,
        "slot": "1",
        "type": "t_array(t_uint256)50_storage"
      },
      {
        "astId": 3225,
        "contract": "contracts/Factory.sol:Factory",
        "label": "__gap",
        "offset": 0,
        "slot": "51",
        "type": "t_array(t_uint256)50_storage"
      },
      {
        "astId": 3551,
        "contract": "contracts/Factory.sol:Factory",
        "label": "__gap",
        "offset": 0,
        "slot": "101",
        "type": "t_array(t_uint256)50_storage"
      },
      {
        "astId": 2324,
        "contract": "contracts/Factory.sol:Factory",
        "label": "_owner",
        "offset": 0,
        "slot": "151",
        "type": "t_address"
      },
      {
        "astId": 2444,
        "contract": "contracts/Factory.sol:Factory",
        "label": "__gap",
        "offset": 0,
        "slot": "152",
        "type": "t_array(t_uint256)49_storage"
      },
      {
        "astId": 4238,
        "contract": "contracts/Factory.sol:Factory",
        "label": "_HASHED_NAME",
        "offset": 0,
        "slot": "201",
        "type": "t_bytes32"
      },
      {
        "astId": 4240,
        "contract": "contracts/Factory.sol:Factory",
        "label": "_HASHED_VERSION",
        "offset": 0,
        "slot": "202",
        "type": "t_bytes32"
      },
      {
        "astId": 4378,
        "contract": "contracts/Factory.sol:Factory",
        "label": "__gap",
        "offset": 0,
        "slot": "203",
        "type": "t_array(t_uint256)50_storage"
      }
    ],
    "types": {
      "t_address": {
        "encoding": "inplace",
        "label": "address",
        "numberOfBytes": "20"
      },
      "t_array(t_uint256)49_storage": {
        "base": "t_uint256",
        "encoding": "inplace",
        "label": "uint256[49]",
        "numberOfBytes": "1568"
      },
      "t_array(t_uint256)50_storage": {
        "base": "t_uint256",
        "encoding": "inplace",
        "label": "uint256[50]",
        "numberOfBytes": "1600"
      },
      "t_bool": {
        "encoding": "inplace",
        "label": "bool",
        "numberOfBytes": "1"
      },
      "t_bytes32": {
        "encoding": "inplace",
        "label": "bytes32",
        "numberOfBytes": "32"
      },
      "t_uint256": {
        "encoding": "inplace",
        "label": "uint256",
        "numberOfBytes": "32"
      },
      "t_uint8": {
        "encoding": "inplace",
        "label": "uint8",
        "numberOfBytes": "1"
      }
    }
  }
}