{
  "address": "0xa5F38C8fD689Fd8fe6B5F26a2AFaa964D2fDea0C",
  "abi": [
    {
      "inputs": [
        {
          "internalType": "contract GnosisSafe",
          "name": "twoFactorVerifyer_",
          "type": "address"
        }
      ],
      "stateMutability": "nonpayable",
      "type": "constructor"
    },
    {
      "anonymous": false,
      "inputs": [
        {
          "indexed": true,
          "internalType": "address",
          "name": "previousOwner",
          "type": "address"
        },
        {
          "indexed": true,
          "internalType": "address",
          "name": "newOwner",
          "type": "address"
        }
      ],
      "name": "OwnershipTransferred",
      "type": "event"
    },
    {
      "inputs": [],
      "name": "factory",
      "outputs": [
        {
          "internalType": "contract Factory",
          "name": "",
          "type": "address"
        }
      ],
      "stateMutability": "view",
      "type": "function"
    },
    {
      "inputs": [],
      "name": "forwarder",
      "outputs": [
        {
          "internalType": "contract MinimalForwarder",
          "name": "",
          "type": "address"
        }
      ],
      "stateMutability": "view",
      "type": "function"
    },
    {
      "inputs": [],
      "name": "gnosisSingleton",
      "outputs": [
        {
          "internalType": "contract GnosisSafe",
          "name": "",
          "type": "address"
        }
      ],
      "stateMutability": "view",
      "type": "function"
    },
    {
      "inputs": [],
      "name": "initScript",
      "outputs": [
        {
          "internalType": "contract InitializationScriptInterface",
          "name": "",
          "type": "address"
        }
      ],
      "stateMutability": "view",
      "type": "function"
    },
    {
      "inputs": [],
      "name": "owner",
      "outputs": [
        {
          "internalType": "address",
          "name": "",
          "type": "address"
        }
      ],
      "stateMutability": "view",
      "type": "function"
    },
    {
      "inputs": [],
      "name": "renounceOwnership",
      "outputs": [],
      "stateMutability": "nonpayable",
      "type": "function"
    },
    {
      "inputs": [],
      "name": "singeltonRecoveryManager",
      "outputs": [
        {
          "internalType": "contract RecoveryManager",
          "name": "",
          "type": "address"
        }
      ],
      "stateMutability": "view",
      "type": "function"
    },
    {
      "inputs": [
        {
          "internalType": "bytes",
          "name": "minimalForwarderCreationBytecode_",
          "type": "bytes"
        },
        {
          "internalType": "bytes",
          "name": "recoveryManagerCreationBytecode_",
          "type": "bytes"
        }
      ],
      "name": "step1",
      "outputs": [],
      "stateMutability": "nonpayable",
      "type": "function"
    },
    {
      "inputs": [
        {
          "internalType": "bytes",
          "name": "twoFactorGuardCreationBytecode_",
          "type": "bytes"
        }
      ],
      "name": "step2",
      "outputs": [],
      "stateMutability": "nonpayable",
      "type": "function"
    },
    {
      "inputs": [
        {
          "internalType": "bytes",
          "name": "gnosisSafeCreationBytecode_",
          "type": "bytes"
        },
        {
          "internalType": "bytes",
          "name": "initScriptCreationBytecode_",
          "type": "bytes"
        }
      ],
      "name": "step3",
      "outputs": [],
      "stateMutability": "nonpayable",
      "type": "function"
    },
    {
      "inputs": [
        {
          "internalType": "bytes",
          "name": "factoryCreationBytecode_",
          "type": "bytes"
        },
        {
          "internalType": "address",
          "name": "deployer",
          "type": "address"
        }
      ],
      "name": "step4",
      "outputs": [],
      "stateMutability": "nonpayable",
      "type": "function"
    },
    {
      "inputs": [
        {
          "internalType": "address",
          "name": "newOwner",
          "type": "address"
        }
      ],
      "name": "transferOwnership",
      "outputs": [],
      "stateMutability": "nonpayable",
      "type": "function"
    },
    {
      "inputs": [],
      "name": "twoFactorGuard",
      "outputs": [
        {
          "internalType": "contract TwoFactorGuard",
          "name": "",
          "type": "address"
        }
      ],
      "stateMutability": "view",
      "type": "function"
    },
    {
      "inputs": [],
      "name": "twoFactorVerifyer",
      "outputs": [
        {
          "internalType": "contract GnosisSafe",
          "name": "",
          "type": "address"
        }
      ],
      "stateMutability": "view",
      "type": "function"
    }
  ],
  "transactionHash": "0x16cf4dbcd12b2e5ae86723ac5034a96ba33e3bf19f03cad57b7fdb57c9d7e4f2",
  "args": [
    "0xEdbFEa935f09394Edd5AAC9BFbd83a13AB8BFbF7"
  ],
  "numDeployments": 2,
  "solcInputHash": "2b1f2b416ba4ee3a3ab46718cf71377b",
  "bytecode": "0x608060405234801561001057600080fd5b5060405161171e38038061171e83398101604081905261002f916100ad565b6100383361005d565b600180546001600160a01b0319166001600160a01b03929092169190911790556100dd565b600080546001600160a01b038381166001600160a01b0319831681178455604051919092169283917f8be0079c531659141344cd1fd0a4f28419497f9722a3daafe3b4186f6b6457e09190a35050565b6000602082840312156100bf57600080fd5b81516001600160a01b03811681146100d657600080fd5b9392505050565b611632806100ec6000396000f3fe60806040523480156200001157600080fd5b5060043610620000fd5760003560e01c80639913086a1162000097578063c45a0155116200006e578063c45a01551462000240578063def503e61462000261578063f2fde38b1462000278578063f645d4f9146200028f57600080fd5b80639913086a14620001e7578063a11ce20c1462000208578063b3222780146200021f57600080fd5b80635999f2ce11620000d85780635999f2ce146200018657806366be544e146200019d578063715018a614620001be5780638da5cb5b14620001c857600080fd5b806321d56a4314620001025780632c551c78146200014c57806332d68da2146200016d575b600080fd5b600554620001239073ffffffffffffffffffffffffffffffffffffffff1681565b60405173ffffffffffffffffffffffffffffffffffffffff909116815260200160405180910390f35b600654620001239073ffffffffffffffffffffffffffffffffffffffff1681565b620001846200017e36600462000ef4565b620002b0565b005b620001846200019736600462000f3a565b620004b4565b600154620001239073ffffffffffffffffffffffffffffffffffffffff1681565b6200018462000692565b60005473ffffffffffffffffffffffffffffffffffffffff1662000123565b600454620001239073ffffffffffffffffffffffffffffffffffffffff1681565b620001846200021936600462000f3a565b620006aa565b600354620001239073ffffffffffffffffffffffffffffffffffffffff1681565b600754620001239073ffffffffffffffffffffffffffffffffffffffff1681565b620001846200027236600462000fd7565b620007ce565b620001846200028936600462001031565b62000b79565b600254620001239073ffffffffffffffffffffffffffffffffffffffff1681565b620002ba62000c36565b60025473ffffffffffffffffffffffffffffffffffffffff166200033f576040517f08c379a000000000000000000000000000000000000000000000000000000000815260206004820152601960248201527f466f72776172646572206973206e6f74206465706c6f7965640000000000000060448201526064015b60405180910390fd5b60035473ffffffffffffffffffffffffffffffffffffffff16620003c0576040517f08c379a000000000000000000000000000000000000000000000000000000000815260206004820152601f60248201527f5265636f766572794d616e61676572206973206e6f74206465706c6f79656400604482015260640162000336565b6001546040805173ffffffffffffffffffffffffffffffffffffffff90921660208301526000916200046a9183917fd22d0d3c2679ef94e214bdf6c377dffe31f4037a9048dbdda2fdcc49d280c4969187918791015b604080517fffffffffffffffffffffffffffffffffffffffffffffffffffffffffffffffe0818403018152908290526200045593929160200162001075565b60405160208183030381529060405262000cb9565b600480547fffffffffffffffffffffffff00000000000000000000000000000000000000001673ffffffffffffffffffffffffffffffffffffffff92909216919091179055505050565b620004be62000c36565b60045473ffffffffffffffffffffffffffffffffffffffff166200053f576040517f08c379a000000000000000000000000000000000000000000000000000000000815260206004820152601e60248201527f54776f466163746f724775617264206973206e6f74206465706c6f7965640000604482015260640162000336565b620005a360007f6190ebf51fd5de79822a58c3de8080e9dd8d8465157d8f054218eddd5042f8cc86868080601f01602080910402602001604051908101604052809392919081815260200183838082843760009201919091525062000cb992505050565b600560006101000a81548173ffffffffffffffffffffffffffffffffffffffff021916908373ffffffffffffffffffffffffffffffffffffffff1602179055506200064760007f8a38e5d6f02c82453d25e7306a46df92e45d0b7c000ac23146e4a3373837cf2684848080601f01602080910402602001604051908101604052809392919081815260200183838082843760009201919091525062000cb992505050565b600680547fffffffffffffffffffffffff00000000000000000000000000000000000000001673ffffffffffffffffffffffffffffffffffffffff9290921691909117905550505050565b6200069c62000c36565b620006a8600062000e25565b565b620006b462000c36565b60006200071a60007f9e0923a39f515e9a8cebc9fb694b9abf7e4b8c3f7ab6f81b56eabdac504b08dc87878080601f01602080910402602001604051908101604052809392919081815260200183838082843760009201919091525062000cb992505050565b905060006200077560007f7efab4cff3e0f59e91205805a991940c2386b936f29149eb21b05c6a7957b13886868660405160200162000416919073ffffffffffffffffffffffffffffffffffffffff91909116815260200190565b6002805473ffffffffffffffffffffffffffffffffffffffff9485167fffffffffffffffffffffffff00000000000000000000000000000000000000009182161790915560038054929094169116179091555050505050565b620007d862000c36565b60055473ffffffffffffffffffffffffffffffffffffffff1662000859576040517f08c379a000000000000000000000000000000000000000000000000000000000815260206004820152601960248201527f53696e676c65746f6e206973206e6f74206465706c6f79656400000000000000604482015260640162000336565b60065473ffffffffffffffffffffffffffffffffffffffff16620008da576040517f08c379a000000000000000000000000000000000000000000000000000000000815260206004820152601a60248201527f496e6974536372697074206973206e6f74206465706c6f796564000000000000604482015260640162000336565b60075473ffffffffffffffffffffffffffffffffffffffff16156200095c576040517f08c379a000000000000000000000000000000000000000000000000000000000815260206004820152601b60248201527f466163746f727920697320616c7265616479206465706c6f7965640000000000604482015260640162000336565b6000620009c260007f992f90ffb92c5ad86f1df6829115f18aaea41d6094dadc8955c35086081a7bb986868080601f01602080910402602001604051908101604052809392919081815260200183838082843760009201919091525062000cb992505050565b6004546006546005546003546040805173ffffffffffffffffffffffffffffffffffffffff958616602482015293851660448501529184166064840152929092166084808301919091528251808303909101815260a490910182526020810180517bffffffffffffffffffffffffffffffffffffffffffffffffffffffff167ff8c8765e00000000000000000000000000000000000000000000000000000000179052905191925060009183919062000a7b9062000e9a565b62000a889291906200109e565b604051809103906000f08015801562000aa5573d6000803e3d6000fd5b506040517f880f403900000000000000000000000000000000000000000000000000000000815273ffffffffffffffffffffffffffffffffffffffff85811660048301529192509082169063880f403990602401600060405180830381600087803b15801562000b1457600080fd5b505af115801562000b29573d6000803e3d6000fd5b5050600780547fffffffffffffffffffffffff00000000000000000000000000000000000000001673ffffffffffffffffffffffffffffffffffffffff9490941693909317909255505050505050565b62000b8362000c36565b73ffffffffffffffffffffffffffffffffffffffff811662000c28576040517f08c379a000000000000000000000000000000000000000000000000000000000815260206004820152602660248201527f4f776e61626c653a206e6577206f776e657220697320746865207a65726f206160448201527f6464726573730000000000000000000000000000000000000000000000000000606482015260840162000336565b62000c338162000e25565b50565b60005473ffffffffffffffffffffffffffffffffffffffff163314620006a8576040517f08c379a000000000000000000000000000000000000000000000000000000000815260206004820181905260248201527f4f776e61626c653a2063616c6c6572206973206e6f7420746865206f776e6572604482015260640162000336565b60008347101562000d27576040517f08c379a000000000000000000000000000000000000000000000000000000000815260206004820152601d60248201527f437265617465323a20696e73756666696369656e742062616c616e6365000000604482015260640162000336565b815160000362000d94576040517f08c379a000000000000000000000000000000000000000000000000000000000815260206004820181905260248201527f437265617465323a2062797465636f6465206c656e677468206973207a65726f604482015260640162000336565b8282516020840186f5905073ffffffffffffffffffffffffffffffffffffffff811662000e1e576040517f08c379a000000000000000000000000000000000000000000000000000000000815260206004820152601960248201527f437265617465323a204661696c6564206f6e206465706c6f7900000000000000604482015260640162000336565b9392505050565b6000805473ffffffffffffffffffffffffffffffffffffffff8381167fffffffffffffffffffffffff0000000000000000000000000000000000000000831681178455604051919092169283917f8be0079c531659141344cd1fd0a4f28419497f9722a3daafe3b4186f6b6457e09190a35050565b6104ee806200110f83390190565b60008083601f84011262000ebb57600080fd5b50813567ffffffffffffffff81111562000ed457600080fd5b60208301915083602082850101111562000eed57600080fd5b9250929050565b6000806020838503121562000f0857600080fd5b823567ffffffffffffffff81111562000f2057600080fd5b62000f2e8582860162000ea8565b90969095509350505050565b6000806000806040858703121562000f5157600080fd5b843567ffffffffffffffff8082111562000f6a57600080fd5b62000f788883890162000ea8565b9096509450602087013591508082111562000f9257600080fd5b5062000fa18782880162000ea8565b95989497509550505050565b803573ffffffffffffffffffffffffffffffffffffffff8116811462000fd257600080fd5b919050565b60008060006040848603121562000fed57600080fd5b833567ffffffffffffffff8111156200100557600080fd5b620010138682870162000ea8565b90945092506200102890506020850162000fad565b90509250925092565b6000602082840312156200104457600080fd5b62000e1e8262000fad565b60005b838110156200106c57818101518382015260200162001052565b50506000910152565b828482376000838201600081528351620010948183602088016200104f565b0195945050505050565b73ffffffffffffffffffffffffffffffffffffffff831681526040602082015260008251806040840152620010db8160608501602087016200104f565b601f017fffffffffffffffffffffffffffffffffffffffffffffffffffffffffffffffe01691909101606001939250505056fe60806040526040516104ee3803806104ee833981016040819052610022916102de565b61002e82826000610035565b50506103fb565b61003e83610061565b60008251118061004b5750805b1561005c5761005a83836100a1565b505b505050565b61006a816100cd565b6040516001600160a01b038216907fbc7cd75a20ee27fd9adebab32041f755214dbc6bffa90cc0225b39da2e5c2d3b90600090a250565b60606100c683836040518060600160405280602781526020016104c760279139610180565b9392505050565b6001600160a01b0381163b61013f5760405162461bcd60e51b815260206004820152602d60248201527f455243313936373a206e657720696d706c656d656e746174696f6e206973206e60448201526c1bdd08184818dbdb9d1c9858dd609a1b60648201526084015b60405180910390fd5b7f360894a13ba1a3210667c828492db98dca3e2076cc3735a920a3ca505d382bbc80546001600160a01b0319166001600160a01b0392909216919091179055565b6060600080856001600160a01b03168560405161019d91906103ac565b600060405180830381855af49150503d80600081146101d8576040519150601f19603f3d011682016040523d82523d6000602084013e6101dd565b606091505b5090925090506101ef868383876101f9565b9695505050505050565b60608315610268578251600003610261576001600160a01b0385163b6102615760405162461bcd60e51b815260206004820152601d60248201527f416464726573733a2063616c6c20746f206e6f6e2d636f6e74726163740000006044820152606401610136565b5081610272565b610272838361027a565b949350505050565b81511561028a5781518083602001fd5b8060405162461bcd60e51b815260040161013691906103c8565b634e487b7160e01b600052604160045260246000fd5b60005b838110156102d55781810151838201526020016102bd565b50506000910152565b600080604083850312156102f157600080fd5b82516001600160a01b038116811461030857600080fd5b60208401519092506001600160401b038082111561032557600080fd5b818501915085601f83011261033957600080fd5b81518181111561034b5761034b6102a4565b604051601f8201601f19908116603f01168101908382118183101715610373576103736102a4565b8160405282815288602084870101111561038c57600080fd5b61039d8360208301602088016102ba565b80955050505050509250929050565b600082516103be8184602087016102ba565b9190910192915050565b60208152600082518060208401526103e78160408501602087016102ba565b601f01601f19169190910160400192915050565b60be806104096000396000f3fe608060405236601057600e6013565b005b600e5b601f601b6021565b6065565b565b600060607f360894a13ba1a3210667c828492db98dca3e2076cc3735a920a3ca505d382bbc5473ffffffffffffffffffffffffffffffffffffffff1690565b905090565b3660008037600080366000845af43d6000803e8080156083573d6000f35b3d6000fdfea26469706673582212209b08928d2e22f8fed511052cf0d66856fbb39f071a8adce44299109c3a2a4a9f64736f6c63430008130033416464726573733a206c6f772d6c6576656c2064656c65676174652063616c6c206661696c6564a2646970667358221220a350ec661efe243c29cb1eab585c199c670890f6b36d1ca9c59850d754b069f964736f6c63430008130033",
  "devdoc": {
    "kind": "dev",
    "methods": {
      "owner()": {
        "details": "Returns the address of the current owner."
      },
      "renounceOwnership()": {
        "details": "Leaves the contract without owner. It will not be possible to call `onlyOwner` functions anymore. Can only be called by the current owner. NOTE: Renouncing ownership will leave the contract without an owner, thereby removing any functionality that is only available to the owner."
      },
      "transferOwnership(address)": {
        "details": "Transfers ownership of the contract to a new account (`newOwner`). Can only be called by the current owner."
      }
    },
    "version": 1
  },
  "userdoc": {
    "kind": "user",
    "methods": {},
    "version": 1
  },
  "storageLayout": {
    "storage": [
      {
        "astId": 5171,
        "contract": "contracts/Deploy.sol:Deploy",
        "label": "_owner",
        "offset": 0,
        "slot": "0",
        "type": "t_address"
      },
      {
        "astId": 8018,
        "contract": "contracts/Deploy.sol:Deploy",
        "label": "twoFactorVerifyer",
        "offset": 0,
        "slot": "1",
        "type": "t_contract(GnosisSafe)952"
      },
      {
        "astId": 8021,
        "contract": "contracts/Deploy.sol:Deploy",
        "label": "forwarder",
        "offset": 0,
        "slot": "2",
        "type": "t_contract(MinimalForwarder)5457"
      },
      {
        "astId": 8024,
        "contract": "contracts/Deploy.sol:Deploy",
        "label": "singeltonRecoveryManager",
        "offset": 0,
        "slot": "3",
        "type": "t_contract(RecoveryManager)9357"
      },
      {
        "astId": 8027,
        "contract": "contracts/Deploy.sol:Deploy",
        "label": "twoFactorGuard",
        "offset": 0,
        "slot": "4",
        "type": "t_contract(TwoFactorGuard)8971"
      },
      {
        "astId": 8030,
        "contract": "contracts/Deploy.sol:Deploy",
        "label": "gnosisSingleton",
        "offset": 0,
        "slot": "5",
        "type": "t_contract(GnosisSafe)952"
      },
      {
        "astId": 8033,
        "contract": "contracts/Deploy.sol:Deploy",
        "label": "initScript",
        "offset": 0,
        "slot": "6",
        "type": "t_contract(InitializationScriptInterface)9371"
      },
      {
        "astId": 8036,
        "contract": "contracts/Deploy.sol:Deploy",
        "label": "factory",
        "offset": 0,
        "slot": "7",
        "type": "t_contract(Factory)8727"
      }
    ],
    "types": {
      "t_address": {
        "encoding": "inplace",
        "label": "address",
        "numberOfBytes": "20"
      },
      "t_contract(Factory)8727": {
        "encoding": "inplace",
        "label": "contract Factory",
        "numberOfBytes": "20"
      },
      "t_contract(GnosisSafe)952": {
        "encoding": "inplace",
        "label": "contract GnosisSafe",
        "numberOfBytes": "20"
      },
      "t_contract(InitializationScriptInterface)9371": {
        "encoding": "inplace",
        "label": "contract InitializationScriptInterface",
        "numberOfBytes": "20"
      },
      "t_contract(MinimalForwarder)5457": {
        "encoding": "inplace",
        "label": "contract MinimalForwarder",
        "numberOfBytes": "20"
      },
      "t_contract(RecoveryManager)9357": {
        "encoding": "inplace",
        "label": "contract RecoveryManager",
        "numberOfBytes": "20"
      },
      "t_contract(TwoFactorGuard)8971": {
        "encoding": "inplace",
        "label": "contract TwoFactorGuard",
        "numberOfBytes": "20"
      }
    }
  }
}