{
  "address": "0x0F216d41a4B814Bc453EC96bEDA1983b5Be36D78",
  "abi": [
    {
      "inputs": [],
      "stateMutability": "nonpayable",
      "type": "constructor"
    },
    {
      "anonymous": false,
      "inputs": [
        {
          "indexed": false,
          "internalType": "address",
          "name": "owner",
          "type": "address"
        }
      ],
      "name": "AddedOwner",
      "type": "event"
    },
    {
      "anonymous": false,
      "inputs": [
        {
          "indexed": true,
          "internalType": "bytes32",
          "name": "approvedHash",
          "type": "bytes32"
        },
        {
          "indexed": true,
          "internalType": "address",
          "name": "owner",
          "type": "address"
        }
      ],
      "name": "ApproveHash",
      "type": "event"
    },
    {
      "anonymous": false,
      "inputs": [
        {
          "indexed": false,
          "internalType": "address",
          "name": "handler",
          "type": "address"
        }
      ],
      "name": "ChangedFallbackHandler",
      "type": "event"
    },
    {
      "anonymous": false,
      "inputs": [
        {
          "indexed": false,
          "internalType": "address",
          "name": "guard",
          "type": "address"
        }
      ],
      "name": "ChangedGuard",
      "type": "event"
    },
    {
      "anonymous": false,
      "inputs": [
        {
          "indexed": false,
          "internalType": "uint256",
          "name": "threshold",
          "type": "uint256"
        }
      ],
      "name": "ChangedThreshold",
      "type": "event"
    },
    {
      "anonymous": false,
      "inputs": [
        {
          "indexed": false,
          "internalType": "address",
          "name": "module",
          "type": "address"
        }
      ],
      "name": "DisabledModule",
      "type": "event"
    },
    {
      "anonymous": false,
      "inputs": [
        {
          "indexed": false,
          "internalType": "address",
          "name": "module",
          "type": "address"
        }
      ],
      "name": "EnabledModule",
      "type": "event"
    },
    {
      "anonymous": false,
      "inputs": [
        {
          "indexed": false,
          "internalType": "bytes32",
          "name": "txHash",
          "type": "bytes32"
        },
        {
          "indexed": false,
          "internalType": "uint256",
          "name": "payment",
          "type": "uint256"
        }
      ],
      "name": "ExecutionFailure",
      "type": "event"
    },
    {
      "anonymous": false,
      "inputs": [
        {
          "indexed": true,
          "internalType": "address",
          "name": "module",
          "type": "address"
        }
      ],
      "name": "ExecutionFromModuleFailure",
      "type": "event"
    },
    {
      "anonymous": false,
      "inputs": [
        {
          "indexed": true,
          "internalType": "address",
          "name": "module",
          "type": "address"
        }
      ],
      "name": "ExecutionFromModuleSuccess",
      "type": "event"
    },
    {
      "anonymous": false,
      "inputs": [
        {
          "indexed": false,
          "internalType": "bytes32",
          "name": "txHash",
          "type": "bytes32"
        },
        {
          "indexed": false,
          "internalType": "uint256",
          "name": "payment",
          "type": "uint256"
        }
      ],
      "name": "ExecutionSuccess",
      "type": "event"
    },
    {
      "anonymous": false,
      "inputs": [
        {
          "indexed": false,
          "internalType": "address",
          "name": "owner",
          "type": "address"
        }
      ],
      "name": "RemovedOwner",
      "type": "event"
    },
    {
      "anonymous": false,
      "inputs": [
        {
          "indexed": true,
          "internalType": "address",
          "name": "sender",
          "type": "address"
        },
        {
          "indexed": false,
          "internalType": "uint256",
          "name": "value",
          "type": "uint256"
        }
      ],
      "name": "SafeReceived",
      "type": "event"
    },
    {
      "anonymous": false,
      "inputs": [
        {
          "indexed": true,
          "internalType": "address",
          "name": "initiator",
          "type": "address"
        },
        {
          "indexed": false,
          "internalType": "address[]",
          "name": "owners",
          "type": "address[]"
        },
        {
          "indexed": false,
          "internalType": "uint256",
          "name": "threshold",
          "type": "uint256"
        },
        {
          "indexed": false,
          "internalType": "address",
          "name": "initializer",
          "type": "address"
        },
        {
          "indexed": false,
          "internalType": "address",
          "name": "fallbackHandler",
          "type": "address"
        }
      ],
      "name": "SafeSetup",
      "type": "event"
    },
    {
      "anonymous": false,
      "inputs": [
        {
          "indexed": true,
          "internalType": "bytes32",
          "name": "msgHash",
          "type": "bytes32"
        }
      ],
      "name": "SignMsg",
      "type": "event"
    },
    {
      "stateMutability": "nonpayable",
      "type": "fallback"
    },
    {
      "inputs": [],
      "name": "VERSION",
      "outputs": [
        {
          "internalType": "string",
          "name": "",
          "type": "string"
        }
      ],
      "stateMutability": "view",
      "type": "function"
    },
    {
      "inputs": [
        {
          "internalType": "address",
          "name": "owner",
          "type": "address"
        },
        {
          "internalType": "uint256",
          "name": "_threshold",
          "type": "uint256"
        }
      ],
      "name": "addOwnerWithThreshold",
      "outputs": [],
      "stateMutability": "nonpayable",
      "type": "function"
    },
    {
      "inputs": [
        {
          "internalType": "bytes32",
          "name": "hashToApprove",
          "type": "bytes32"
        }
      ],
      "name": "approveHash",
      "outputs": [],
      "stateMutability": "nonpayable",
      "type": "function"
    },
    {
      "inputs": [
        {
          "internalType": "address",
          "name": "",
          "type": "address"
        },
        {
          "internalType": "bytes32",
          "name": "",
          "type": "bytes32"
        }
      ],
      "name": "approvedHashes",
      "outputs": [
        {
          "internalType": "uint256",
          "name": "",
          "type": "uint256"
        }
      ],
      "stateMutability": "view",
      "type": "function"
    },
    {
      "inputs": [
        {
          "internalType": "uint256",
          "name": "_threshold",
          "type": "uint256"
        }
      ],
      "name": "changeThreshold",
      "outputs": [],
      "stateMutability": "nonpayable",
      "type": "function"
    },
    {
      "inputs": [
        {
          "internalType": "bytes32",
          "name": "dataHash",
          "type": "bytes32"
        },
        {
          "internalType": "bytes",
          "name": "data",
          "type": "bytes"
        },
        {
          "internalType": "bytes",
          "name": "signatures",
          "type": "bytes"
        },
        {
          "internalType": "uint256",
          "name": "requiredSignatures",
          "type": "uint256"
        }
      ],
      "name": "checkNSignatures",
      "outputs": [],
      "stateMutability": "view",
      "type": "function"
    },
    {
      "inputs": [
        {
          "internalType": "bytes32",
          "name": "dataHash",
          "type": "bytes32"
        },
        {
          "internalType": "bytes",
          "name": "data",
          "type": "bytes"
        },
        {
          "internalType": "bytes",
          "name": "signatures",
          "type": "bytes"
        }
      ],
      "name": "checkSignatures",
      "outputs": [],
      "stateMutability": "view",
      "type": "function"
    },
    {
      "inputs": [
        {
          "internalType": "address",
          "name": "prevModule",
          "type": "address"
        },
        {
          "internalType": "address",
          "name": "module",
          "type": "address"
        }
      ],
      "name": "disableModule",
      "outputs": [],
      "stateMutability": "nonpayable",
      "type": "function"
    },
    {
      "inputs": [],
      "name": "domainSeparator",
      "outputs": [
        {
          "internalType": "bytes32",
          "name": "",
          "type": "bytes32"
        }
      ],
      "stateMutability": "view",
      "type": "function"
    },
    {
      "inputs": [
        {
          "internalType": "address",
          "name": "module",
          "type": "address"
        }
      ],
      "name": "enableModule",
      "outputs": [],
      "stateMutability": "nonpayable",
      "type": "function"
    },
    {
      "inputs": [
        {
          "internalType": "address",
          "name": "to",
          "type": "address"
        },
        {
          "internalType": "uint256",
          "name": "value",
          "type": "uint256"
        },
        {
          "internalType": "bytes",
          "name": "data",
          "type": "bytes"
        },
        {
          "internalType": "enum Enum.Operation",
          "name": "operation",
          "type": "uint8"
        },
        {
          "internalType": "uint256",
          "name": "safeTxGas",
          "type": "uint256"
        },
        {
          "internalType": "uint256",
          "name": "baseGas",
          "type": "uint256"
        },
        {
          "internalType": "uint256",
          "name": "gasPrice",
          "type": "uint256"
        },
        {
          "internalType": "address",
          "name": "gasToken",
          "type": "address"
        },
        {
          "internalType": "address",
          "name": "refundReceiver",
          "type": "address"
        },
        {
          "internalType": "uint256",
          "name": "_nonce",
          "type": "uint256"
        }
      ],
      "name": "encodeTransactionData",
      "outputs": [
        {
          "internalType": "bytes",
          "name": "",
          "type": "bytes"
        }
      ],
      "stateMutability": "view",
      "type": "function"
    },
    {
      "inputs": [
        {
          "internalType": "address",
          "name": "to",
          "type": "address"
        },
        {
          "internalType": "uint256",
          "name": "value",
          "type": "uint256"
        },
        {
          "internalType": "bytes",
          "name": "data",
          "type": "bytes"
        },
        {
          "internalType": "enum Enum.Operation",
          "name": "operation",
          "type": "uint8"
        },
        {
          "internalType": "uint256",
          "name": "safeTxGas",
          "type": "uint256"
        },
        {
          "internalType": "uint256",
          "name": "baseGas",
          "type": "uint256"
        },
        {
          "internalType": "uint256",
          "name": "gasPrice",
          "type": "uint256"
        },
        {
          "internalType": "address",
          "name": "gasToken",
          "type": "address"
        },
        {
          "internalType": "address payable",
          "name": "refundReceiver",
          "type": "address"
        },
        {
          "internalType": "bytes",
          "name": "signatures",
          "type": "bytes"
        }
      ],
      "name": "execTransaction",
      "outputs": [
        {
          "internalType": "bool",
          "name": "success",
          "type": "bool"
        }
      ],
      "stateMutability": "payable",
      "type": "function"
    },
    {
      "inputs": [
        {
          "internalType": "address",
          "name": "to",
          "type": "address"
        },
        {
          "internalType": "uint256",
          "name": "value",
          "type": "uint256"
        },
        {
          "internalType": "bytes",
          "name": "data",
          "type": "bytes"
        },
        {
          "internalType": "enum Enum.Operation",
          "name": "operation",
          "type": "uint8"
        }
      ],
      "name": "execTransactionFromModule",
      "outputs": [
        {
          "internalType": "bool",
          "name": "success",
          "type": "bool"
        }
      ],
      "stateMutability": "nonpayable",
      "type": "function"
    },
    {
      "inputs": [
        {
          "internalType": "address",
          "name": "to",
          "type": "address"
        },
        {
          "internalType": "uint256",
          "name": "value",
          "type": "uint256"
        },
        {
          "internalType": "bytes",
          "name": "data",
          "type": "bytes"
        },
        {
          "internalType": "enum Enum.Operation",
          "name": "operation",
          "type": "uint8"
        }
      ],
      "name": "execTransactionFromModuleReturnData",
      "outputs": [
        {
          "internalType": "bool",
          "name": "success",
          "type": "bool"
        },
        {
          "internalType": "bytes",
          "name": "returnData",
          "type": "bytes"
        }
      ],
      "stateMutability": "nonpayable",
      "type": "function"
    },
    {
      "inputs": [],
      "name": "getChainId",
      "outputs": [
        {
          "internalType": "uint256",
          "name": "",
          "type": "uint256"
        }
      ],
      "stateMutability": "view",
      "type": "function"
    },
    {
      "inputs": [
        {
          "internalType": "address",
          "name": "start",
          "type": "address"
        },
        {
          "internalType": "uint256",
          "name": "pageSize",
          "type": "uint256"
        }
      ],
      "name": "getModulesPaginated",
      "outputs": [
        {
          "internalType": "address[]",
          "name": "array",
          "type": "address[]"
        },
        {
          "internalType": "address",
          "name": "next",
          "type": "address"
        }
      ],
      "stateMutability": "view",
      "type": "function"
    },
    {
      "inputs": [],
      "name": "getOwners",
      "outputs": [
        {
          "internalType": "address[]",
          "name": "",
          "type": "address[]"
        }
      ],
      "stateMutability": "view",
      "type": "function"
    },
    {
      "inputs": [
        {
          "internalType": "uint256",
          "name": "offset",
          "type": "uint256"
        },
        {
          "internalType": "uint256",
          "name": "length",
          "type": "uint256"
        }
      ],
      "name": "getStorageAt",
      "outputs": [
        {
          "internalType": "bytes",
          "name": "",
          "type": "bytes"
        }
      ],
      "stateMutability": "view",
      "type": "function"
    },
    {
      "inputs": [],
      "name": "getThreshold",
      "outputs": [
        {
          "internalType": "uint256",
          "name": "",
          "type": "uint256"
        }
      ],
      "stateMutability": "view",
      "type": "function"
    },
    {
      "inputs": [
        {
          "internalType": "address",
          "name": "to",
          "type": "address"
        },
        {
          "internalType": "uint256",
          "name": "value",
          "type": "uint256"
        },
        {
          "internalType": "bytes",
          "name": "data",
          "type": "bytes"
        },
        {
          "internalType": "enum Enum.Operation",
          "name": "operation",
          "type": "uint8"
        },
        {
          "internalType": "uint256",
          "name": "safeTxGas",
          "type": "uint256"
        },
        {
          "internalType": "uint256",
          "name": "baseGas",
          "type": "uint256"
        },
        {
          "internalType": "uint256",
          "name": "gasPrice",
          "type": "uint256"
        },
        {
          "internalType": "address",
          "name": "gasToken",
          "type": "address"
        },
        {
          "internalType": "address",
          "name": "refundReceiver",
          "type": "address"
        },
        {
          "internalType": "uint256",
          "name": "_nonce",
          "type": "uint256"
        }
      ],
      "name": "getTransactionHash",
      "outputs": [
        {
          "internalType": "bytes32",
          "name": "",
          "type": "bytes32"
        }
      ],
      "stateMutability": "view",
      "type": "function"
    },
    {
      "inputs": [
        {
          "internalType": "address",
          "name": "module",
          "type": "address"
        }
      ],
      "name": "isModuleEnabled",
      "outputs": [
        {
          "internalType": "bool",
          "name": "",
          "type": "bool"
        }
      ],
      "stateMutability": "view",
      "type": "function"
    },
    {
      "inputs": [
        {
          "internalType": "address",
          "name": "owner",
          "type": "address"
        }
      ],
      "name": "isOwner",
      "outputs": [
        {
          "internalType": "bool",
          "name": "",
          "type": "bool"
        }
      ],
      "stateMutability": "view",
      "type": "function"
    },
    {
      "inputs": [],
      "name": "nonce",
      "outputs": [
        {
          "internalType": "uint256",
          "name": "",
          "type": "uint256"
        }
      ],
      "stateMutability": "view",
      "type": "function"
    },
    {
      "inputs": [
        {
          "internalType": "address",
          "name": "prevOwner",
          "type": "address"
        },
        {
          "internalType": "address",
          "name": "owner",
          "type": "address"
        },
        {
          "internalType": "uint256",
          "name": "_threshold",
          "type": "uint256"
        }
      ],
      "name": "removeOwner",
      "outputs": [],
      "stateMutability": "nonpayable",
      "type": "function"
    },
    {
      "inputs": [
        {
          "internalType": "address",
          "name": "to",
          "type": "address"
        },
        {
          "internalType": "uint256",
          "name": "value",
          "type": "uint256"
        },
        {
          "internalType": "bytes",
          "name": "data",
          "type": "bytes"
        },
        {
          "internalType": "enum Enum.Operation",
          "name": "operation",
          "type": "uint8"
        }
      ],
      "name": "requiredTxGas",
      "outputs": [
        {
          "internalType": "uint256",
          "name": "",
          "type": "uint256"
        }
      ],
      "stateMutability": "nonpayable",
      "type": "function"
    },
    {
      "inputs": [
        {
          "internalType": "address",
          "name": "handler",
          "type": "address"
        }
      ],
      "name": "setFallbackHandler",
      "outputs": [],
      "stateMutability": "nonpayable",
      "type": "function"
    },
    {
      "inputs": [
        {
          "internalType": "address",
          "name": "guard",
          "type": "address"
        }
      ],
      "name": "setGuard",
      "outputs": [],
      "stateMutability": "nonpayable",
      "type": "function"
    },
    {
      "inputs": [
        {
          "internalType": "address[]",
          "name": "_owners",
          "type": "address[]"
        },
        {
          "internalType": "uint256",
          "name": "_threshold",
          "type": "uint256"
        },
        {
          "internalType": "address",
          "name": "to",
          "type": "address"
        },
        {
          "internalType": "bytes",
          "name": "data",
          "type": "bytes"
        },
        {
          "internalType": "address",
          "name": "fallbackHandler",
          "type": "address"
        },
        {
          "internalType": "address",
          "name": "paymentToken",
          "type": "address"
        },
        {
          "internalType": "uint256",
          "name": "payment",
          "type": "uint256"
        },
        {
          "internalType": "address payable",
          "name": "paymentReceiver",
          "type": "address"
        }
      ],
      "name": "setup",
      "outputs": [],
      "stateMutability": "nonpayable",
      "type": "function"
    },
    {
      "inputs": [
        {
          "internalType": "bytes32",
          "name": "",
          "type": "bytes32"
        }
      ],
      "name": "signedMessages",
      "outputs": [
        {
          "internalType": "uint256",
          "name": "",
          "type": "uint256"
        }
      ],
      "stateMutability": "view",
      "type": "function"
    },
    {
      "inputs": [
        {
          "internalType": "address",
          "name": "targetContract",
          "type": "address"
        },
        {
          "internalType": "bytes",
          "name": "calldataPayload",
          "type": "bytes"
        }
      ],
      "name": "simulateAndRevert",
      "outputs": [],
      "stateMutability": "nonpayable",
      "type": "function"
    },
    {
      "inputs": [
        {
          "internalType": "address",
          "name": "prevOwner",
          "type": "address"
        },
        {
          "internalType": "address",
          "name": "oldOwner",
          "type": "address"
        },
        {
          "internalType": "address",
          "name": "newOwner",
          "type": "address"
        }
      ],
      "name": "swapOwner",
      "outputs": [],
      "stateMutability": "nonpayable",
      "type": "function"
    },
    {
      "stateMutability": "payable",
      "type": "receive"
    }
  ],
  "transactionHash": "0x4c9f7b522f1833098e060f18a11560b9db1cfd8305bebcb2dc955284b97b9c77",
  "args": [],
  "numDeployments": 1,
  "solcInputHash": "05c22e95e23cacd542af2f1e142d2276",
  "bytecode": "0x608060405234801561001057600080fd5b5060016004556137a6806100256000396000f3fe6080604052600436106101dc5760003560e01c8063affed0e011610102578063e19a9dd911610095578063f08a032311610064578063f08a032314610620578063f698da2514610640578063f8dc5dd9146106a7578063ffa1ad74146106c757610218565b8063e19a9dd9146105ab578063e318b52b146105cb578063e75235b8146105eb578063e86637db1461060057610218565b8063cc2f8452116100d1578063cc2f84521461051d578063d4d9bdcd1461054b578063d8d11f781461056b578063e009cfde1461058b57610218565b8063affed0e0146104a7578063b4faba09146104bd578063b63e800d146104dd578063c4ca3a9c146104fd57610218565b80635624b25b1161017a5780636a761202116101495780636a7612021461041a5780637d8329741461042d578063934f3a1114610465578063a0e67e2b1461048557610218565b80635624b25b146103805780635ae6bd37146103ad578063610b5925146103da578063694e80c3146103fa57610218565b80632f54bf6e116101b65780632f54bf6e146102f55780633408e47014610315578063468721a7146103325780635229073f1461035257610218565b80630d582f131461027e57806312fb68e0146102a05780632d9ad53d146102c057610218565b366102185760405134815233907f3d0ce9bfc3ed7d6862dbb28b2dea94561fe714a1b4d019aa8af39730d1ad7c3d9060200160405180910390a2005b34801561022457600080fd5b507f6c9a6c4a39284e37ed1cf53d337577d14212a4870fb976a4366c693b939918d580548061024f57005b36600080373360601b365260008060143601600080855af190503d6000803e80610278573d6000fd5b503d6000f35b34801561028a57600080fd5b5061029e610299366004612b4a565b610710565b005b3480156102ac57600080fd5b5061029e6102bb366004612c50565b6108e4565b3480156102cc57600080fd5b506102e06102db366004612cc5565b610e28565b60405190151581526020015b60405180910390f35b34801561030157600080fd5b506102e0610310366004612cc5565b610e63565b34801561032157600080fd5b50465b6040519081526020016102ec565b34801561033e57600080fd5b506102e061034d366004612cf1565b610e9b565b34801561035e57600080fd5b5061037261036d366004612cf1565b610f8a565b6040516102ec929190612dbf565b34801561038c57600080fd5b506103a061039b366004612dda565b610fc0565b6040516102ec9190612dfc565b3480156103b957600080fd5b506103246103c8366004612e0f565b60076020526000908152604090205481565b3480156103e657600080fd5b5061029e6103f5366004612cc5565b611046565b34801561040657600080fd5b5061029e610415366004612e0f565b6111d0565b6102e0610428366004612e71565b6112b0565b34801561043957600080fd5b50610324610448366004612b4a565b600860209081526000928352604080842090915290825290205481565b34801561047157600080fd5b5061029e610480366004612f4a565b611642565b34801561049157600080fd5b5061049a6116a4565b6040516102ec9190612ffb565b3480156104b357600080fd5b5061032460055481565b3480156104c957600080fd5b5061029e6104d836600461300e565b611795565b3480156104e957600080fd5b5061029e6104f836600461305e565b6117b8565b34801561050957600080fd5b50610324610518366004613153565b6118d9565b34801561052957600080fd5b5061053d610538366004612b4a565b611991565b6040516102ec9291906131c4565b34801561055757600080fd5b5061029e610566366004612e0f565b611a8b565b34801561057757600080fd5b506103246105863660046131ef565b611b38565b34801561059757600080fd5b5061029e6105a63660046132b0565b611b65565b3480156105b757600080fd5b5061029e6105c6366004612cc5565b611cdc565b3480156105d757600080fd5b5061029e6105e63660046132e9565b611d41565b3480156105f757600080fd5b50600454610324565b34801561060c57600080fd5b506103a061061b3660046131ef565b611ff0565b34801561062c57600080fd5b5061029e61063b366004612cc5565b612189565b34801561064c57600080fd5b5061032460007f47e79534a245952e8b16893a336b85a3d9ea9fa8c573f3d803afb92a794692184660408051602081019390935282015230606082015260800160405160208183030381529060405280519060200120905090565b3480156106b357600080fd5b5061029e6106c2366004613334565b6121f2565b3480156106d357600080fd5b506103a06040518060400160405280600581526020017f312e332e3000000000000000000000000000000000000000000000000000000081525081565b6107186123f5565b6001600160a01b0382161580159061073a57506001600160a01b038216600114155b801561074f57506001600160a01b0382163014155b6107a05760405162461bcd60e51b815260206004820152600560248201527f475332303300000000000000000000000000000000000000000000000000000060448201526064015b60405180910390fd5b6001600160a01b0382811660009081526002602052604090205416156108085760405162461bcd60e51b815260206004820152600560248201527f47533230340000000000000000000000000000000000000000000000000000006044820152606401610797565b60026020527fe90b7bceb6e7df5418fb78d8ee546e97c83a08bbccc01a0644d599ccd2a7c2e080546001600160a01b038481166000818152604081208054939094167fffffffffffffffffffffffff00000000000000000000000000000000000000009384161790935560018352835490911617909155600380549161088d836133a4565b90915550506040516001600160a01b03831681527f9465fa0c962cc76958e6373a993326400c1c94f8be2fe3a952adfa7f60b2ea269060200160405180910390a180600454146108e0576108e0816111d0565b5050565b6108ef816041612446565b8251101561093f5760405162461bcd60e51b815260206004820152600560248201527f47533032300000000000000000000000000000000000000000000000000000006044820152606401610797565b6000808060008060005b86811015610e1c576041818102890160208101516040820151919092015160ff16955090935091506000849003610bab57919350839161098a876041612446565b8210156109d95760405162461bcd60e51b815260206004820152600560248201527f47533032310000000000000000000000000000000000000000000000000000006044820152606401610797565b87516109e6836020612482565b1115610a345760405162461bcd60e51b815260206004820152600560248201527f47533032320000000000000000000000000000000000000000000000000000006044820152606401610797565b602082890181015189519091610a57908390610a51908790612482565b90612482565b1115610aa55760405162461bcd60e51b815260206004820152600560248201527f47533032330000000000000000000000000000000000000000000000000000006044820152606401610797565b6040517f20c13b0b000000000000000000000000000000000000000000000000000000008082528a8501602001916001600160a01b038916906320c13b0b90610af4908f9086906004016133dc565b602060405180830381865afa158015610b11573d6000803e3d6000fd5b505050506040513d601f19601f82011682018060405250810190610b359190613401565b7fffffffff000000000000000000000000000000000000000000000000000000001614610ba45760405162461bcd60e51b815260206004820152600560248201527f47533032340000000000000000000000000000000000000000000000000000006044820152606401610797565b5050610d6a565b8360ff16600103610c45579193508391336001600160a01b0384161480610bf457506001600160a01b03851660009081526008602090815260408083208d845290915290205415155b610c405760405162461bcd60e51b815260206004820152600560248201527f47533032350000000000000000000000000000000000000000000000000000006044820152606401610797565b610d6a565b601e8460ff161115610d0a576040517f19457468657265756d205369676e6564204d6573736167653a0a3332000000006020820152603c81018b9052600190605c0160405160208183030381529060405280519060200120600486610caa9190613443565b6040805160008152602081018083529390935260ff90911690820152606081018590526080810184905260a0016020604051602081039080840390855afa158015610cf9573d6000803e3d6000fd5b505050602060405103519450610d6a565b6040805160008152602081018083528c905260ff861691810191909152606081018490526080810183905260019060a0016020604051602081039080840390855afa158015610d5d573d6000803e3d6000fd5b5050506020604051035194505b856001600160a01b0316856001600160a01b0316118015610da457506001600160a01b038581166000908152600260205260409020541615155b8015610dba57506001600160a01b038516600114155b610e065760405162461bcd60e51b815260206004820152600560248201527f47533032360000000000000000000000000000000000000000000000000000006044820152606401610797565b8495508080610e14906133a4565b915050610949565b50505050505050505050565b600060016001600160a01b03831614801590610e5d57506001600160a01b038281166000908152600160205260409020541615155b92915050565b60006001600160a01b038216600114801590610e5d5750506001600160a01b0390811660009081526002602052604090205416151590565b600033600114801590610ec55750336000908152600160205260409020546001600160a01b031615155b610f115760405162461bcd60e51b815260206004820152600560248201527f47533130340000000000000000000000000000000000000000000000000000006044820152606401610797565b610f1e858585855a61249e565b90508015610f565760405133907f6895c13664aa4f67288b25d7a21d7aaa34916e355fb9b6fae0a139a9085becb890600090a2610f82565b60405133907facd2c8702804128fdb0db2bb49f6d127dd0181c13fd45dbfe16de0930e2bd37590600090a25b949350505050565b60006060610f9a86868686610e9b565b915060405160203d0181016040523d81523d6000602083013e8091505094509492505050565b60606000610fcf83602061345c565b67ffffffffffffffff811115610fe757610fe7612b76565b6040519080825280601f01601f191660200182016040528015611011576020820181803683370190505b50905060005b8381101561103e578481015460208083028401015280611036816133a4565b915050611017565b509392505050565b61104e6123f5565b6001600160a01b0381161580159061107057506001600160a01b038116600114155b6110bc5760405162461bcd60e51b815260206004820152600560248201527f47533130310000000000000000000000000000000000000000000000000000006044820152606401610797565b6001600160a01b0381811660009081526001602052604090205416156111245760405162461bcd60e51b815260206004820152600560248201527f47533130320000000000000000000000000000000000000000000000000000006044820152606401610797565b600160208181527fcc69885fda6bcc1a4ace058b4a62bf5e179ea78fd58a1ccd71c22cc9b688792f80546001600160a01b03858116600081815260408082208054949095167fffffffffffffffffffffffff000000000000000000000000000000000000000094851617909455959095528254168417909155519182527fecdf3a3effea5783a3c4c2140e677577666428d44ed9d474a0b3a4c9943f844091015b60405180910390a150565b6111d86123f5565b60035481111561122a5760405162461bcd60e51b815260206004820152600560248201527f47533230310000000000000000000000000000000000000000000000000000006044820152606401610797565b600181101561127b5760405162461bcd60e51b815260206004820152600560248201527f47533230320000000000000000000000000000000000000000000000000000006044820152606401610797565b60048190556040518181527f610f7ff2b304ae8903c3de74c60c6ab1f7d6226b3f52c5161905bb5ad4039c93906020016111c5565b60008060006112ca8e8e8e8e8e8e8e8e8e8e600554611ff0565b6005805491925060006112dc836133a4565b90915550508051602082012091506112f5828286611642565b5060006113207f4a204f620c8c5ccdca3fd54d003badd85ba500436a431f0cbda4f558c93c34c85490565b90506001600160a01b038116156113a657806001600160a01b03166375f0bb528f8f8f8f8f8f8f8f8f8f8f336040518d63ffffffff1660e01b81526004016113739c9b9a999897969594939291906134dd565b600060405180830381600087803b15801561138d57600080fd5b505af11580156113a1573d6000803e3d6000fd5b505050505b6113d26113b58a6109c46135bf565b603f6113c28c604061345c565b6113cc91906135d2565b906124e5565b6113de906101f46135bf565b5a101561142d5760405162461bcd60e51b815260206004820152600560248201527f47533031300000000000000000000000000000000000000000000000000000006044820152606401610797565b60005a905061149e8f8f8f8f8080601f016020809104026020016040519081016040528093929190818152602001838380828437600081840152601f19601f820116905080830192505050505050508e8c60001461148b578e61249e565b6109c45a611499919061360d565b61249e565b93506114ab5a82906124fc565b905083806114b857508915155b806114c257508715155b61150e5760405162461bcd60e51b815260206004820152600560248201527f47533031330000000000000000000000000000000000000000000000000000006044820152606401610797565b6000881561152657611523828b8b8b8b612517565b90505b841561156a5760408051858152602081018390527f442e715f626346e8c54381002da614f62bee8d27386535b2521ec8540898556e910160405180910390a16115a4565b60408051858152602081018390527f23428b18acfb3ea64b08dc0c1d296ea9c09702c09083ca5272e64d115b687d23910160405180910390a15b50506001600160a01b03811615611631576040517f932713680000000000000000000000000000000000000000000000000000000081526004810183905283151560248201526001600160a01b03821690639327136890604401600060405180830381600087803b15801561161857600080fd5b505af115801561162c573d6000803e3d6000fd5b505050505b50509b9a5050505050505050505050565b600454806116925760405162461bcd60e51b815260206004820152600560248201527f47533030310000000000000000000000000000000000000000000000000000006044820152606401610797565b61169e848484846108e4565b50505050565b6060600060035467ffffffffffffffff8111156116c3576116c3612b76565b6040519080825280602002602001820160405280156116ec578160200160208202803683370190505b506001600090815260026020527fe90b7bceb6e7df5418fb78d8ee546e97c83a08bbccc01a0644d599ccd2a7c2e054919250906001600160a01b03165b6001600160a01b03811660011461178d578083838151811061174d5761174d613620565b6001600160a01b03928316602091820292909201810191909152918116600090815260029092526040909120541681611785816133a4565b925050611729565b509092915050565b600080825160208401855af480600052503d6020523d600060403e60403d016000fd5b6117f68a8a808060200260200160405190810160405280939291908181526020018383602002808284376000920191909152508c925061264d915050565b6001600160a01b0384161561182d5761182d847f6c9a6c4a39284e37ed1cf53d337577d14212a4870fb976a4366c693b939918d555565b61186d8787878080601f01602080910402602001604051908101604052809392919081815260200183838082843760009201919091525061292392505050565b81156118845761188282600060018685612517565b505b336001600160a01b03167f141df868a6331af528e38c83b7aa03edc19be66e37ae67f9285bf4f8e3c6a1a88b8b8b8b896040516118c595949392919061364f565b60405180910390a250505050505050505050565b6000805a9050611922878787878080601f01602080910402602001604051908101604052809392919081815260200183838082843760009201919091525089925050505a61249e565b61192b57600080fd5b60005a611938908361360d565b90508060405160200161194d91815260200190565b604080517fffffffffffffffffffffffffffffffffffffffffffffffffffffffffffffffe08184030181529082905262461bcd60e51b825261079791600401612dfc565b606060008267ffffffffffffffff8111156119ae576119ae612b76565b6040519080825280602002602001820160405280156119d7578160200160208202803683370190505b506001600160a01b0380861660009081526001602052604081205492945091165b6001600160a01b03811615801590611a1a57506001600160a01b038116600114155b8015611a2557508482105b15611a7d5780848381518110611a3d57611a3d613620565b6001600160a01b03928316602091820292909201810191909152918116600090815260019092526040909120541681611a75816133a4565b9250506119f8565b908352919491935090915050565b336000908152600260205260409020546001600160a01b0316611af05760405162461bcd60e51b815260206004820152600560248201527f47533033300000000000000000000000000000000000000000000000000000006044820152606401610797565b336000818152600860209081526040808320858452909152808220600190555183917ff2a0eb156472d1440255b0d7c1e19cc07115d1051fe605b0dce69acfec884d9c91a350565b6000611b4d8c8c8c8c8c8c8c8c8c8c8c611ff0565b8051906020012090509b9a5050505050505050505050565b611b6d6123f5565b6001600160a01b03811615801590611b8f57506001600160a01b038116600114155b611bdb5760405162461bcd60e51b815260206004820152600560248201527f47533130310000000000000000000000000000000000000000000000000000006044820152606401610797565b6001600160a01b03828116600090815260016020526040902054811690821614611c475760405162461bcd60e51b815260206004820152600560248201527f47533130330000000000000000000000000000000000000000000000000000006044820152606401610797565b6001600160a01b038181166000818152600160209081526040808320805488871685528285208054919097167fffffffffffffffffffffffff00000000000000000000000000000000000000009182161790965592849052825490941690915591519081527faab4fa2b463f581b2b32cb3b7e3b704b9ce37cc209b5fb4d77e593ace405427691015b60405180910390a15050565b611ce46123f5565b7f4a204f620c8c5ccdca3fd54d003badd85ba500436a431f0cbda4f558c93c34c88181556040516001600160a01b03831681527f1151116914515bc0891ff9047a6cb32cf902546f83066499bcf8ba33d2353fa290602001611cd0565b611d496123f5565b6001600160a01b03811615801590611d6b57506001600160a01b038116600114155b8015611d8057506001600160a01b0381163014155b611dcc5760405162461bcd60e51b815260206004820152600560248201527f47533230330000000000000000000000000000000000000000000000000000006044820152606401610797565b6001600160a01b038181166000908152600260205260409020541615611e345760405162461bcd60e51b815260206004820152600560248201527f47533230340000000000000000000000000000000000000000000000000000006044820152606401610797565b6001600160a01b03821615801590611e5657506001600160a01b038216600114155b611ea25760405162461bcd60e51b815260206004820152600560248201527f47533230330000000000000000000000000000000000000000000000000000006044820152606401610797565b6001600160a01b03838116600090815260026020526040902054811690831614611f0e5760405162461bcd60e51b815260206004820152600560248201527f47533230350000000000000000000000000000000000000000000000000000006044820152606401610797565b6001600160a01b038281166000818152600260209081526040808320805487871680865283862080549289167fffffffffffffffffffffffff0000000000000000000000000000000000000000938416179055968a1685528285208054821690971790965592849052825490941690915591519081527ff8d49fc529812e9a7c5c50e69c20f0dccc0db8fa95c98bc58cc9a4f1c1299eaf910160405180910390a16040516001600160a01b03821681527f9465fa0c962cc76958e6373a993326400c1c94f8be2fe3a952adfa7f60b2ea269060200160405180910390a1505050565b606060007fbb8310d486368db6bd6f849402fdd73ad53d316b5a4b2644ad6efe0f941286d860001b8d8d8d8d60405161202a9291906136bb565b604051908190038120612050949392918e908e908e908e908e908e908e906020016136cb565b604080517fffffffffffffffffffffffffffffffffffffffffffffffffffffffffffffffe0818403018152919052805160209091012090507f19000000000000000000000000000000000000000000000000000000000000007f010000000000000000000000000000000000000000000000000000000000000061212460007f47e79534a245952e8b16893a336b85a3d9ea9fa8c573f3d803afb92a794692184660408051602081019390935282015230606082015260800160405160208183030381529060405280519060200120905090565b6040517fff0000000000000000000000000000000000000000000000000000000000000093841660208201529290911660218301526022820152604281018290526062016040516020818303038152906040529150509b9a5050505050505050505050565b6121916123f5565b6121b9817f6c9a6c4a39284e37ed1cf53d337577d14212a4870fb976a4366c693b939918d555565b6040516001600160a01b03821681527f5ac6c46c93c8d0e53714ba3b53db3e7c046da994313d7ed0d192028bc7c228b0906020016111c5565b6121fa6123f5565b80600160035461220a919061360d565b10156122585760405162461bcd60e51b815260206004820152600560248201527f47533230310000000000000000000000000000000000000000000000000000006044820152606401610797565b6001600160a01b0382161580159061227a57506001600160a01b038216600114155b6122c65760405162461bcd60e51b815260206004820152600560248201527f47533230330000000000000000000000000000000000000000000000000000006044820152606401610797565b6001600160a01b038381166000908152600260205260409020548116908316146123325760405162461bcd60e51b815260206004820152600560248201527f47533230350000000000000000000000000000000000000000000000000000006044820152606401610797565b6001600160a01b03828116600081815260026020526040808220805488861684529183208054929095167fffffffffffffffffffffffff0000000000000000000000000000000000000000928316179094559181528254909116909155600380549161239d8361373b565b90915550506040516001600160a01b03831681527ff8d49fc529812e9a7c5c50e69c20f0dccc0db8fa95c98bc58cc9a4f1c1299eaf9060200160405180910390a180600454146123f0576123f0816111d0565b505050565b3330146124445760405162461bcd60e51b815260206004820152600560248201527f47533033310000000000000000000000000000000000000000000000000000006044820152606401610797565b565b60008260000361245857506000610e5d565b6000612464838561345c565b90508261247185836135d2565b1461247b57600080fd5b9392505050565b60008061248f83856135bf565b90508381101561247b57600080fd5b600060018360018111156124b4576124b4613473565b036124cc576000808551602087018986f490506124dc565b600080855160208701888a87f190505b95945050505050565b6000818310156124f5578161247b565b5090919050565b60008282111561250b57600080fd5b6000610f82838561360d565b6000806001600160a01b0383161561252f5782612531565b325b90506001600160a01b0384166125dc576125633a8610612551573a612553565b855b61255d8989612482565b90612446565b6040519092506001600160a01b0382169083156108fc029084906000818181858888f193505050506125d75760405162461bcd60e51b815260206004820152600560248201527f47533031310000000000000000000000000000000000000000000000000000006044820152606401610797565b612643565b6125ea8561255d8989612482565b91506125f7848284612a65565b6126435760405162461bcd60e51b815260206004820152600560248201527f47533031320000000000000000000000000000000000000000000000000000006044820152606401610797565b5095945050505050565b6004541561269d5760405162461bcd60e51b815260206004820152600560248201527f47533230300000000000000000000000000000000000000000000000000000006044820152606401610797565b81518111156126ee5760405162461bcd60e51b815260206004820152600560248201527f47533230310000000000000000000000000000000000000000000000000000006044820152606401610797565b600181101561273f5760405162461bcd60e51b815260206004820152600560248201527f47533230320000000000000000000000000000000000000000000000000000006044820152606401610797565b600160005b83518110156128d857600084828151811061276157612761613620565b6020026020010151905060006001600160a01b0316816001600160a01b03161415801561279857506001600160a01b038116600114155b80156127ad57506001600160a01b0381163014155b80156127cb5750806001600160a01b0316836001600160a01b031614155b6128175760405162461bcd60e51b815260206004820152600560248201527f47533230330000000000000000000000000000000000000000000000000000006044820152606401610797565b6001600160a01b03818116600090815260026020526040902054161561287f5760405162461bcd60e51b815260206004820152600560248201527f47533230340000000000000000000000000000000000000000000000000000006044820152606401610797565b6001600160a01b03928316600090815260026020526040902080547fffffffffffffffffffffffff00000000000000000000000000000000000000001693821693909317909255806128d0816133a4565b915050612744565b506001600160a01b0316600090815260026020526040902080547fffffffffffffffffffffffff00000000000000000000000000000000000000001660011790559051600355600455565b600160008190526020527fcc69885fda6bcc1a4ace058b4a62bf5e179ea78fd58a1ccd71c22cc9b688792f546001600160a01b0316156129a55760405162461bcd60e51b815260206004820152600560248201527f47533130300000000000000000000000000000000000000000000000000000006044820152606401610797565b6001600081905260208190527fcc69885fda6bcc1a4ace058b4a62bf5e179ea78fd58a1ccd71c22cc9b688792f80547fffffffffffffffffffffffff00000000000000000000000000000000000000001690911790556001600160a01b038216156108e057612a198260008360015a61249e565b6108e05760405162461bcd60e51b815260206004820152600560248201527f47533030300000000000000000000000000000000000000000000000000000006044820152606401610797565b604080516001600160a01b03841660248201526044808201849052825180830390910181526064909101909152602080820180517bffffffffffffffffffffffffffffffffffffffffffffffffffffffff167fa9059cbb000000000000000000000000000000000000000000000000000000001781528251600093929184919082896127105a03f13d8015612b055760208114612b0d5760009350612b18565b819350612b18565b600051158215171593505b5050509392505050565b6001600160a01b0381168114612b3757600080fd5b50565b8035612b4581612b22565b919050565b60008060408385031215612b5d57600080fd5b8235612b6881612b22565b946020939093013593505050565b7f4e487b7100000000000000000000000000000000000000000000000000000000600052604160045260246000fd5b600082601f830112612bb657600080fd5b813567ffffffffffffffff80821115612bd157612bd1612b76565b604051601f83017fffffffffffffffffffffffffffffffffffffffffffffffffffffffffffffffe0908116603f01168101908282118183101715612c1757612c17612b76565b81604052838152866020858801011115612c3057600080fd5b836020870160208301376000602085830101528094505050505092915050565b60008060008060808587031215612c6657600080fd5b84359350602085013567ffffffffffffffff80821115612c8557600080fd5b612c9188838901612ba5565b94506040870135915080821115612ca757600080fd5b50612cb487828801612ba5565b949793965093946060013593505050565b600060208284031215612cd757600080fd5b813561247b81612b22565b803560028110612b4557600080fd5b60008060008060808587031215612d0757600080fd5b8435612d1281612b22565b935060208501359250604085013567ffffffffffffffff811115612d3557600080fd5b612d4187828801612ba5565b925050612d5060608601612ce2565b905092959194509250565b6000815180845260005b81811015612d8157602081850181015186830182015201612d65565b5060006020828601015260207fffffffffffffffffffffffffffffffffffffffffffffffffffffffffffffffe0601f83011685010191505092915050565b8215158152604060208201526000610f826040830184612d5b565b60008060408385031215612ded57600080fd5b50508035926020909101359150565b60208152600061247b6020830184612d5b565b600060208284031215612e2157600080fd5b5035919050565b60008083601f840112612e3a57600080fd5b50813567ffffffffffffffff811115612e5257600080fd5b602083019150836020828501011115612e6a57600080fd5b9250929050565b60008060008060008060008060008060006101408c8e031215612e9357600080fd5b612e9c8c612b3a565b9a5060208c0135995067ffffffffffffffff8060408e01351115612ebf57600080fd5b612ecf8e60408f01358f01612e28565b909a509850612ee060608e01612ce2565b975060808d0135965060a08d0135955060c08d01359450612f0360e08e01612b3a565b9350612f126101008e01612b3a565b9250806101208e01351115612f2657600080fd5b50612f388d6101208e01358e01612ba5565b90509295989b509295989b9093969950565b600080600060608486031215612f5f57600080fd5b83359250602084013567ffffffffffffffff80821115612f7e57600080fd5b612f8a87838801612ba5565b93506040860135915080821115612fa057600080fd5b50612fad86828701612ba5565b9150509250925092565b600081518084526020808501945080840160005b83811015612ff05781516001600160a01b031687529582019590820190600101612fcb565b509495945050505050565b60208152600061247b6020830184612fb7565b6000806040838503121561302157600080fd5b823561302c81612b22565b9150602083013567ffffffffffffffff81111561304857600080fd5b61305485828601612ba5565b9150509250929050565b6000806000806000806000806000806101008b8d03121561307e57600080fd5b8a3567ffffffffffffffff8082111561309657600080fd5b818d0191508d601f8301126130aa57600080fd5b8135818111156130b957600080fd5b8e60208260051b85010111156130ce57600080fd5b60208381019d50909b508d013599506130e960408e01612b3a565b985060608d01359150808211156130ff57600080fd5b5061310c8d828e01612e28565b909750955061311f905060808c01612b3a565b935061312d60a08c01612b3a565b925060c08b0135915061314260e08c01612b3a565b90509295989b9194979a5092959850565b60008060008060006080868803121561316b57600080fd5b853561317681612b22565b945060208601359350604086013567ffffffffffffffff81111561319957600080fd5b6131a588828901612e28565b90945092506131b8905060608701612ce2565b90509295509295909350565b6040815260006131d76040830185612fb7565b90506001600160a01b03831660208301529392505050565b60008060008060008060008060008060006101408c8e03121561321157600080fd5b8b3561321c81612b22565b9a5060208c0135995060408c013567ffffffffffffffff81111561323f57600080fd5b61324b8e828f01612e28565b909a50985061325e905060608d01612ce2565b965060808c0135955060a08c0135945060c08c0135935060e08c013561328381612b22565b92506101008c013561329481612b22565b809250506101208c013590509295989b509295989b9093969950565b600080604083850312156132c357600080fd5b82356132ce81612b22565b915060208301356132de81612b22565b809150509250929050565b6000806000606084860312156132fe57600080fd5b833561330981612b22565b9250602084013561331981612b22565b9150604084013561332981612b22565b809150509250925092565b60008060006060848603121561334957600080fd5b833561335481612b22565b9250602084013561336481612b22565b929592945050506040919091013590565b7f4e487b7100000000000000000000000000000000000000000000000000000000600052601160045260246000fd5b60007fffffffffffffffffffffffffffffffffffffffffffffffffffffffffffffffff82036133d5576133d5613375565b5060010190565b6040815260006133ef6040830185612d5b565b82810360208401526124dc8185612d5b565b60006020828403121561341357600080fd5b81517fffffffff000000000000000000000000000000000000000000000000000000008116811461247b57600080fd5b60ff8281168282160390811115610e5d57610e5d613375565b8082028115828204841417610e5d57610e5d613375565b7f4e487b7100000000000000000000000000000000000000000000000000000000600052602160045260246000fd5b600281106134d9577f4e487b7100000000000000000000000000000000000000000000000000000000600052602160045260246000fd5b9052565b60006101606001600160a01b038f1683528d60208401528060408401528b81840152506101808b8d828501376000818d850101527fffffffffffffffffffffffffffffffffffffffffffffffffffffffffffffffe0601f8d01168301613546606085018d6134a2565b8a60808501528960a08501528860c085015261356d60e08501896001600160a01b03169052565b6001600160a01b038716610100850152818482030161012085015261359482820187612d5b565b925050506135ae6101408301846001600160a01b03169052565b9d9c50505050505050505050505050565b80820180821115610e5d57610e5d613375565b600082613608577f4e487b7100000000000000000000000000000000000000000000000000000000600052601260045260246000fd5b500490565b81810381811115610e5d57610e5d613375565b7f4e487b7100000000000000000000000000000000000000000000000000000000600052603260045260246000fd5b6080808252810185905260008660a08301825b8881101561369257823561367581612b22565b6001600160a01b0316825260209283019290910190600101613662565b50602084019690965250506001600160a01b039283166040820152911660609091015292915050565b8183823760009101908152919050565b6000610160820190508c82526001600160a01b03808d1660208401528b60408401528a6060840152613700608084018b6134a2565b60a083019890985260c082019690965260e0810194909452918516610100840152909316610120820152610140019190915295945050505050565b60008161374a5761374a613375565b507fffffffffffffffffffffffffffffffffffffffffffffffffffffffffffffffff019056fea2646970667358221220a47f487881666072262ff7e6ce973c13bc06a8ff629883e737182d34bed0a10f64736f6c63430008130033",
  "devdoc": {
    "author": "Stefan George - <stefan@gnosis.io>Richard Meissner - <richard@gnosis.io>",
    "kind": "dev",
    "methods": {
      "addOwnerWithThreshold(address,uint256)": {
        "details": "Allows to add a new owner to the Safe and update the threshold at the same time.      This can only be done via a Safe transaction.",
        "params": {
          "_threshold": "New threshold.",
          "owner": "New owner address."
        }
      },
      "approveHash(bytes32)": {
        "details": "Marks a hash as approved. This can be used to validate a hash that is used by a signature.",
        "params": {
          "hashToApprove": "The hash that should be marked as approved for signatures that are verified by this contract."
        }
      },
      "changeThreshold(uint256)": {
        "details": "Allows to update the number of required confirmations by Safe owners.      This can only be done via a Safe transaction.",
        "params": {
          "_threshold": "New threshold."
        }
      },
      "checkNSignatures(bytes32,bytes,bytes,uint256)": {
        "details": "Checks whether the signature provided is valid for the provided data, hash. Will revert otherwise.",
        "params": {
          "data": "That should be signed (this is passed to an external validator contract)",
          "dataHash": "Hash of the data (could be either a message hash or transaction hash)",
          "requiredSignatures": "Amount of required valid signatures.",
          "signatures": "Signature data that should be verified. Can be ECDSA signature, contract signature (EIP-1271) or approved hash."
        }
      },
      "checkSignatures(bytes32,bytes,bytes)": {
        "details": "Checks whether the signature provided is valid for the provided data, hash. Will revert otherwise.",
        "params": {
          "data": "That should be signed (this is passed to an external validator contract)",
          "dataHash": "Hash of the data (could be either a message hash or transaction hash)",
          "signatures": "Signature data that should be verified. Can be ECDSA signature, contract signature (EIP-1271) or approved hash."
        }
      },
      "disableModule(address,address)": {
        "details": "Allows to remove a module from the whitelist.      This can only be done via a Safe transaction.",
        "params": {
          "module": "Module to be removed.",
          "prevModule": "Module that pointed to the module to be removed in the linked list"
        }
      },
      "enableModule(address)": {
        "details": "Allows to add a module to the whitelist.      This can only be done via a Safe transaction.",
        "params": {
          "module": "Module to be whitelisted."
        }
      },
      "encodeTransactionData(address,uint256,bytes,uint8,uint256,uint256,uint256,address,address,uint256)": {
        "details": "Returns the bytes that are hashed to be signed by owners.",
        "params": {
          "_nonce": "Transaction nonce.",
          "baseGas": "Gas costs for that are independent of the transaction execution(e.g. base transaction fee, signature check, payment of the refund)",
          "data": "Data payload.",
          "gasPrice": "Maximum gas price that should be used for this transaction.",
          "gasToken": "Token address (or 0 if ETH) that is used for the payment.",
          "operation": "Operation type.",
          "refundReceiver": "Address of receiver of gas payment (or 0 if tx.origin).",
          "safeTxGas": "Gas that should be used for the safe transaction.",
          "to": "Destination address.",
          "value": "Ether value."
        },
        "returns": {
          "_0": "Transaction hash bytes."
        }
      },
      "execTransaction(address,uint256,bytes,uint8,uint256,uint256,uint256,address,address,bytes)": {
        "details": "Allows to execute a Safe transaction confirmed by required number of owners and then pays the account that submitted the transaction.      Note: The fees are always transferred, even if the user transaction fails.",
        "params": {
          "baseGas": "Gas costs that are independent of the transaction execution(e.g. base transaction fee, signature check, payment of the refund)",
          "data": "Data payload of Safe transaction.",
          "gasPrice": "Gas price that should be used for the payment calculation.",
          "gasToken": "Token address (or 0 if ETH) that is used for the payment.",
          "operation": "Operation type of Safe transaction.",
          "refundReceiver": "Address of receiver of gas payment (or 0 if tx.origin).",
          "safeTxGas": "Gas that should be used for the Safe transaction.",
          "signatures": "Packed signature data ({bytes32 r}{bytes32 s}{uint8 v})",
          "to": "Destination address of Safe transaction.",
          "value": "Ether value of Safe transaction."
        }
      },
      "execTransactionFromModule(address,uint256,bytes,uint8)": {
        "details": "Allows a Module to execute a Safe transaction without any further confirmations.",
        "params": {
          "data": "Data payload of module transaction.",
          "operation": "Operation type of module transaction.",
          "to": "Destination address of module transaction.",
          "value": "Ether value of module transaction."
        }
      },
      "execTransactionFromModuleReturnData(address,uint256,bytes,uint8)": {
        "details": "Allows a Module to execute a Safe transaction without any further confirmations and return data",
        "params": {
          "data": "Data payload of module transaction.",
          "operation": "Operation type of module transaction.",
          "to": "Destination address of module transaction.",
          "value": "Ether value of module transaction."
        }
      },
      "getChainId()": {
        "details": "Returns the chain id used by this contract."
      },
      "getModulesPaginated(address,uint256)": {
        "details": "Returns array of modules.",
        "params": {
          "pageSize": "Maximum number of modules that should be returned.",
          "start": "Start of the page."
        },
        "returns": {
          "array": "Array of modules.",
          "next": "Start of the next page."
        }
      },
      "getOwners()": {
        "details": "Returns array of owners.",
        "returns": {
          "_0": "Array of Safe owners."
        }
      },
      "getStorageAt(uint256,uint256)": {
        "details": "Reads `length` bytes of storage in the currents contract",
        "params": {
          "length": "- the number of words (32 bytes) of data to read",
          "offset": "- the offset in the current contract's storage in words to start reading from"
        },
        "returns": {
          "_0": "the bytes that were read."
        }
      },
      "getTransactionHash(address,uint256,bytes,uint8,uint256,uint256,uint256,address,address,uint256)": {
        "details": "Returns hash to be signed by owners.",
        "params": {
          "_nonce": "Transaction nonce.",
          "baseGas": "Gas costs for data used to trigger the safe transaction.",
          "data": "Data payload.",
          "gasPrice": "Maximum gas price that should be used for this transaction.",
          "gasToken": "Token address (or 0 if ETH) that is used for the payment.",
          "operation": "Operation type.",
          "refundReceiver": "Address of receiver of gas payment (or 0 if tx.origin).",
          "safeTxGas": "Fas that should be used for the safe transaction.",
          "to": "Destination address.",
          "value": "Ether value."
        },
        "returns": {
          "_0": "Transaction hash."
        }
      },
      "isModuleEnabled(address)": {
        "details": "Returns if an module is enabled",
        "returns": {
          "_0": "True if the module is enabled"
        }
      },
      "removeOwner(address,address,uint256)": {
        "details": "Allows to remove an owner from the Safe and update the threshold at the same time.      This can only be done via a Safe transaction.",
        "params": {
          "_threshold": "New threshold.",
          "owner": "Owner address to be removed.",
          "prevOwner": "Owner that pointed to the owner to be removed in the linked list"
        }
      },
      "requiredTxGas(address,uint256,bytes,uint8)": {
        "details": "Allows to estimate a Safe transaction.      This method is only meant for estimation purpose, therefore the call will always revert and encode the result in the revert data.      Since the `estimateGas` function includes refunds, call this method to get an estimated of the costs that are deducted from the safe with `execTransaction`",
        "params": {
          "data": "Data payload of Safe transaction.",
          "operation": "Operation type of Safe transaction.",
          "to": "Destination address of Safe transaction.",
          "value": "Ether value of Safe transaction."
        },
        "returns": {
          "_0": "Estimate without refunds and overhead fees (base transaction and payload data gas costs)."
        }
      },
      "setFallbackHandler(address)": {
        "details": "Allows to add a contract to handle fallback calls.      Only fallback calls without value and with data will be forwarded.      This can only be done via a Safe transaction.",
        "params": {
          "handler": "contract to handle fallbacks calls."
        }
      },
      "setGuard(address)": {
        "details": "Set a guard that checks transactions before execution",
        "params": {
          "guard": "The address of the guard to be used or the 0 address to disable the guard"
        }
      },
      "setup(address[],uint256,address,bytes,address,address,uint256,address)": {
        "details": "Setup function sets initial storage of contract.",
        "params": {
          "_owners": "List of Safe owners.",
          "_threshold": "Number of required confirmations for a Safe transaction.",
          "data": "Data payload for optional delegate call.",
          "fallbackHandler": "Handler for fallback calls to this contract",
          "payment": "Value that should be paid",
          "paymentReceiver": "Adddress that should receive the payment (or 0 if tx.origin)",
          "paymentToken": "Token that should be used for the payment (0 is ETH)",
          "to": "Contract address for optional delegate call."
        }
      },
      "simulateAndRevert(address,bytes)": {
        "details": "Performs a delegetecall on a targetContract in the context of self. Internally reverts execution to avoid side effects (making it static). This method reverts with data equal to `abi.encode(bool(success), bytes(response))`. Specifically, the `returndata` after a call to this method will be: `success:bool || response.length:uint256 || response:bytes`.",
        "params": {
          "calldataPayload": "Calldata that should be sent to the target contract (encoded method name and arguments).",
          "targetContract": "Address of the contract containing the code to execute."
        }
      },
      "swapOwner(address,address,address)": {
        "details": "Allows to swap/replace an owner from the Safe with another address.      This can only be done via a Safe transaction.",
        "params": {
          "newOwner": "New owner address.",
          "oldOwner": "Owner address to be replaced.",
          "prevOwner": "Owner that pointed to the owner to be replaced in the linked list"
        }
      }
    },
    "title": "Gnosis Safe - A multisignature wallet with support for confirmations using signed messages based on ERC191.",
    "version": 1
  },
  "userdoc": {
    "kind": "user",
    "methods": {
      "addOwnerWithThreshold(address,uint256)": {
        "notice": "Adds the owner `owner` to the Safe and updates the threshold to `_threshold`."
      },
      "changeThreshold(uint256)": {
        "notice": "Changes the threshold of the Safe to `_threshold`."
      },
      "disableModule(address,address)": {
        "notice": "Disables the module `module` for the Safe."
      },
      "enableModule(address)": {
        "notice": "Enables the module `module` for the Safe."
      },
      "removeOwner(address,address,uint256)": {
        "notice": "Removes the owner `owner` from the Safe and updates the threshold to `_threshold`."
      },
      "requiredTxGas(address,uint256,bytes,uint8)": {
        "notice": "Deprecated in favor of common/StorageAccessible.sol and will be removed in next version."
      },
      "swapOwner(address,address,address)": {
        "notice": "Replaces the owner `oldOwner` in the Safe with `newOwner`."
      }
    },
    "version": 1
  },
  "storageLayout": {
    "storage": [
      {
        "astId": 2098,
        "contract": "@gnosis.pm/safe-contracts/contracts/GnosisSafe.sol:GnosisSafe",
        "label": "singleton",
        "offset": 0,
        "slot": "0",
        "type": "t_address"
      },
      {
        "astId": 1149,
        "contract": "@gnosis.pm/safe-contracts/contracts/GnosisSafe.sol:GnosisSafe",
        "label": "modules",
        "offset": 0,
        "slot": "1",
        "type": "t_mapping(t_address,t_address)"
      },
      {
        "astId": 1508,
        "contract": "@gnosis.pm/safe-contracts/contracts/GnosisSafe.sol:GnosisSafe",
        "label": "owners",
        "offset": 0,
        "slot": "2",
        "type": "t_mapping(t_address,t_address)"
      },
      {
        "astId": 1510,
        "contract": "@gnosis.pm/safe-contracts/contracts/GnosisSafe.sol:GnosisSafe",
        "label": "ownerCount",
        "offset": 0,
        "slot": "3",
        "type": "t_uint256"
      },
      {
        "astId": 1512,
        "contract": "@gnosis.pm/safe-contracts/contracts/GnosisSafe.sol:GnosisSafe",
        "label": "threshold",
        "offset": 0,
        "slot": "4",
        "type": "t_uint256"
      },
      {
        "astId": 82,
        "contract": "@gnosis.pm/safe-contracts/contracts/GnosisSafe.sol:GnosisSafe",
        "label": "nonce",
        "offset": 0,
        "slot": "5",
        "type": "t_uint256"
      },
      {
        "astId": 84,
        "contract": "@gnosis.pm/safe-contracts/contracts/GnosisSafe.sol:GnosisSafe",
        "label": "_deprecatedDomainSeparator",
        "offset": 0,
        "slot": "6",
        "type": "t_bytes32"
      },
      {
        "astId": 88,
        "contract": "@gnosis.pm/safe-contracts/contracts/GnosisSafe.sol:GnosisSafe",
        "label": "signedMessages",
        "offset": 0,
        "slot": "7",
        "type": "t_mapping(t_bytes32,t_uint256)"
      },
      {
        "astId": 94,
        "contract": "@gnosis.pm/safe-contracts/contracts/GnosisSafe.sol:GnosisSafe",
        "label": "approvedHashes",
        "offset": 0,
        "slot": "8",
        "type": "t_mapping(t_address,t_mapping(t_bytes32,t_uint256))"
      }
    ],
    "types": {
      "t_address": {
        "encoding": "inplace",
        "label": "address",
        "numberOfBytes": "20"
      },
      "t_bytes32": {
        "encoding": "inplace",
        "label": "bytes32",
        "numberOfBytes": "32"
      },
      "t_mapping(t_address,t_address)": {
        "encoding": "mapping",
        "key": "t_address",
        "label": "mapping(address => address)",
        "numberOfBytes": "32",
        "value": "t_address"
      },
      "t_mapping(t_address,t_mapping(t_bytes32,t_uint256))": {
        "encoding": "mapping",
        "key": "t_address",
        "label": "mapping(address => mapping(bytes32 => uint256))",
        "numberOfBytes": "32",
        "value": "t_mapping(t_bytes32,t_uint256)"
      },
      "t_mapping(t_bytes32,t_uint256)": {
        "encoding": "mapping",
        "key": "t_bytes32",
        "label": "mapping(bytes32 => uint256)",
        "numberOfBytes": "32",
        "value": "t_uint256"
      },
      "t_uint256": {
        "encoding": "inplace",
        "label": "uint256",
        "numberOfBytes": "32"
      }
    }
  }
}