{
  "address": "0xa3F14c4f9CA84d1244467918580e51027bf0e324",
  "abi": [
    {
      "inputs": [
        {
          "internalType": "contract GnosisSafe",
          "name": "_twoFactorVerifier",
          "type": "address"
        }
      ],
      "stateMutability": "nonpayable",
      "type": "constructor"
    },
    {
      "inputs": [
        {
          "internalType": "bytes32",
          "name": "",
          "type": "bytes32"
        },
        {
          "internalType": "bool",
          "name": "",
          "type": "bool"
        }
      ],
      "name": "checkAfterExecution",
      "outputs": [],
      "stateMutability": "pure",
      "type": "function"
    },
    {
      "inputs": [
        {
          "internalType": "address",
          "name": "to",
          "type": "address"
        },
        {
          "internalType": "uint256",
          "name": "value",
          "type": "uint256"
        },
        {
          "internalType": "bytes",
          "name": "data",
          "type": "bytes"
        },
        {
          "internalType": "enum Enum.Operation",
          "name": "operation",
          "type": "uint8"
        },
        {
          "internalType": "uint256",
          "name": "safeTxGas",
          "type": "uint256"
        },
        {
          "internalType": "uint256",
          "name": "baseGas",
          "type": "uint256"
        },
        {
          "internalType": "uint256",
          "name": "gasPrice",
          "type": "uint256"
        },
        {
          "internalType": "address",
          "name": "gasToken",
          "type": "address"
        },
        {
          "internalType": "address payable",
          "name": "refundReceiver",
          "type": "address"
        },
        {
          "internalType": "bytes",
          "name": "signatures",
          "type": "bytes"
        },
        {
          "internalType": "address",
          "name": "",
          "type": "address"
        }
      ],
      "name": "checkTransaction",
      "outputs": [],
      "stateMutability": "view",
      "type": "function"
    },
    {
      "inputs": [],
      "name": "twoFactorVerifier",
      "outputs": [
        {
          "internalType": "contract GnosisSafe",
          "name": "",
          "type": "address"
        }
      ],
      "stateMutability": "view",
      "type": "function"
    },
    {
      "inputs": [
        {
          "internalType": "bytes32",
          "name": "dataHash",
          "type": "bytes32"
        },
        {
          "internalType": "bytes",
          "name": "signatures",
          "type": "bytes"
        }
      ],
      "name": "verifyGuarderSignatures",
      "outputs": [],
      "stateMutability": "view",
      "type": "function"
    }
  ],
  "transactionHash": "0x715b6c6c7580626ff8ad2b34ffbcb13d7448f6a0aa2f77916bde503f37f017f3",
  "args": [
    "0xD407aB6FeC4FEFEc9170Ab75cFdE9C9071d547AF"
  ],
  "numDeployments": 1,
  "solcInputHash": "8843e7da27507001976fb452249986fb",
  "bytecode": "0x60a060405234801561001057600080fd5b50604051610d32380380610d3283398101604081905261002f91610040565b6001600160a01b0316608052610070565b60006020828403121561005257600080fd5b81516001600160a01b038116811461006957600080fd5b9392505050565b608051610c9361009f600039600081816090015281816102970152818161037101526103f70152610c936000f3fe608060405234801561001057600080fd5b506004361061004c5760003560e01c806375f0bb5214610051578063932713681461006657806398bcab2314610078578063bfb8db981461008b575b600080fd5b61006461005f3660046107dd565b6100db565b005b6100646100743660046108c2565b5050565b6100646100863660046108f7565b61033b565b6100b27f000000000000000000000000000000000000000000000000000000000000000081565b60405173ffffffffffffffffffffffffffffffffffffffff909116815260200160405180910390f35b60008860018111156100ef576100ef610973565b14610181576040517f08c379a000000000000000000000000000000000000000000000000000000000815260206004820152602660248201527f54776f466163746f7247756172643a204f6e6c792063616c6c7320617265206160448201527f6c6c6f776564000000000000000000000000000000000000000000000000000060648201526084015b60405180910390fd5b6000339050600060018273ffffffffffffffffffffffffffffffffffffffff1663affed0e06040518163ffffffff1660e01b8152600401602060405180830381865afa1580156101d5573d6000803e3d6000fd5b505050506040513d601f19601f820116820180604052508101906101f991906109a2565b61020391906109ea565b905060008273ffffffffffffffffffffffffffffffffffffffff1663d8d11f788f8f8f8f8f8f8f8f8f8c6040518b63ffffffff1660e01b81526004016102529a99989796959493929190610a61565b602060405180830381865afa15801561026f573d6000803e3d6000fd5b505050506040513d601f19601f8201168201806040525081019061029391906109a2565b90507f000000000000000000000000000000000000000000000000000000000000000073ffffffffffffffffffffffffffffffffffffffff1663934f3a11828e6102dd878a6103f1565b6040518463ffffffff1660e01b81526004016102fb93929190610b2c565b60006040518083038186803b15801561031357600080fd5b505afa158015610327573d6000803e3d6000fd5b505050505050505050505050505050505050565b604080516000815260208101918290527f934f3a11000000000000000000000000000000000000000000000000000000009091527f000000000000000000000000000000000000000000000000000000000000000073ffffffffffffffffffffffffffffffffffffffff1663934f3a116103bb8684878760248301610b61565b60006040518083038186803b1580156103d357600080fd5b505afa1580156103e7573d6000803e3d6000fd5b5050505050505050565b606060007f000000000000000000000000000000000000000000000000000000000000000073ffffffffffffffffffffffffffffffffffffffff1663e75235b86040518163ffffffff1660e01b8152600401602060405180830381865afa158015610460573d6000803e3d6000fd5b505050506040513d601f19601f8201168201806040525081019061048491906109a2565b905060008473ffffffffffffffffffffffffffffffffffffffff1663e75235b86040518163ffffffff1660e01b8152600401602060405180830381865afa1580156104d3573d6000803e3d6000fd5b505050506040513d601f19601f820116820180604052508101906104f791906109a2565b90506105038282610bcc565b61050e906041610bdf565b8451101561059e576040517f08c379a000000000000000000000000000000000000000000000000000000000815260206004820152602560248201527f54776f466163746f7247756172643a204e6f7420656e6f756768207369676e6160448201527f74757265730000000000000000000000000000000000000000000000000000006064820152608401610178565b60006105ab836041610bdf565b67ffffffffffffffff8111156105c3576105c36106f4565b6040519080825280601f01601f1916602001820160405280156105ed576020820181803683370190505b50905060005b838110156106bf576000808061062b8961060d8689610bcc565b60419081029190910160208101516040820151919092015160ff1692565b91945092509050600061063f856041610bdf565b90506000602087019050838282015282602083018201528460f81b878360406106689190610bcc565b8151811061067857610678610bf6565b60200101907effffffffffffffffffffffffffffffffffffffffffffffffffffffffffffff1916908160001a905350505050505080806106b790610c25565b9150506105f3565b50925050505b92915050565b803573ffffffffffffffffffffffffffffffffffffffff811681146106ef57600080fd5b919050565b7f4e487b7100000000000000000000000000000000000000000000000000000000600052604160045260246000fd5b600082601f83011261073457600080fd5b813567ffffffffffffffff8082111561074f5761074f6106f4565b604051601f83017fffffffffffffffffffffffffffffffffffffffffffffffffffffffffffffffe0908116603f01168101908282118183101715610795576107956106f4565b816040528381528660208588010111156107ae57600080fd5b836020870160208301376000602085830101528094505050505092915050565b8035600281106106ef57600080fd5b60008060008060008060008060008060006101608c8e0312156107ff57600080fd5b6108088c6106cb565b9a5060208c0135995067ffffffffffffffff8060408e0135111561082b57600080fd5b61083b8e60408f01358f01610723565b995061084960608e016107ce565b985060808d0135975060a08d0135965060c08d0135955061086c60e08e016106cb565b945061087b6101008e016106cb565b9350806101208e0135111561088f57600080fd5b506108a18d6101208e01358e01610723565b91506108b06101408d016106cb565b90509295989b509295989b9093969950565b600080604083850312156108d557600080fd5b82359150602083013580151581146108ec57600080fd5b809150509250929050565b60008060006040848603121561090c57600080fd5b83359250602084013567ffffffffffffffff8082111561092b57600080fd5b818601915086601f83011261093f57600080fd5b81358181111561094e57600080fd5b87602082850101111561096057600080fd5b6020830194508093505050509250925092565b7f4e487b7100000000000000000000000000000000000000000000000000000000600052602160045260246000fd5b6000602082840312156109b457600080fd5b5051919050565b7f4e487b7100000000000000000000000000000000000000000000000000000000600052601160045260246000fd5b818103818111156106c5576106c56109bb565b6000815180845260005b81811015610a2357602081850181015186830182015201610a07565b5060006020828601015260207fffffffffffffffffffffffffffffffffffffffffffffffffffffffffffffffe0601f83011685010191505092915050565b600061014073ffffffffffffffffffffffffffffffffffffffff808e1684528c6020850152816040850152610a988285018d6109fd565b925060028b10610ad1577f4e487b7100000000000000000000000000000000000000000000000000000000600052602160045260246000fd5b8a60608501528960808501528860a08501528760c085015280871660e08501525050610b1661010083018573ffffffffffffffffffffffffffffffffffffffff169052565b826101208301529b9a5050505050505050505050565b838152606060208201526000610b4560608301856109fd565b8281036040840152610b5781856109fd565b9695505050505050565b848152606060208201526000610b7a60608301866109fd565b82810360408401528381528385602083013760006020858301015260207fffffffffffffffffffffffffffffffffffffffffffffffffffffffffffffffe0601f86011682010191505095945050505050565b808201808211156106c5576106c56109bb565b80820281158282048414176106c5576106c56109bb565b7f4e487b7100000000000000000000000000000000000000000000000000000000600052603260045260246000fd5b60007fffffffffffffffffffffffffffffffffffffffffffffffffffffffffffffffff8203610c5657610c566109bb565b506001019056fea2646970667358221220d09c3e60aaee1ec98314f4c823909c9a7f63eca0ae6ad94282456bfccbbe70c664736f6c63430008130033",
  "devdoc": {
    "kind": "dev",
    "methods": {},
    "version": 1
  },
  "userdoc": {
    "kind": "user",
    "methods": {},
    "version": 1
  },
  "storageLayout": {
    "storage": [],
    "types": null
  }
}